{
  "_format": "hh-sol-artifact-1",
  "contractName": "MarginAccountImplementation",
  "sourceName": "contracts/portfolioAdministration/marginAccount/MarginAccountImplementation.sol",
  "abi": [
    {
      "inputs": [
        {
          "internalType": "address",
          "name": "_validationHub",
          "type": "address"
        },
        {
          "internalType": "address",
          "name": "_orderAssemblySystem",
          "type": "address"
        }
      ],
      "stateMutability": "nonpayable",
      "type": "constructor"
    },
    {
      "inputs": [
        {
          "internalType": "address",
          "name": "token",
          "type": "address"
        }
      ],
      "name": "AmountMustNotBeZero",
      "type": "error"
    },
    {
      "inputs": [],
      "name": "ArrayMustNotBeEmpty",
      "type": "error"
    },
    {
      "inputs": [
        {
          "internalType": "uint256",
          "name": "",
          "type": "uint256"
        }
      ],
      "name": "IdIsReservedForUndefinedState",
      "type": "error"
    },
    {
      "inputs": [
        {
          "internalType": "uint256",
          "name": "index",
          "type": "uint256"
        }
      ],
      "name": "InvalidSequenceAtIndex",
      "type": "error"
    },
    {
      "inputs": [
        {
          "internalType": "State",
          "name": "",
          "type": "uint256"
        }
      ],
      "name": "InvalidState",
      "type": "error"
    },
    {
      "inputs": [],
      "name": "NewOwnerMustBeNonZeroAddress",
      "type": "error"
    },
    {
      "inputs": [
        {
          "internalType": "address",
          "name": "token",
          "type": "address"
        },
        {
          "internalType": "uint256",
          "name": "expected",
          "type": "uint256"
        },
        {
          "internalType": "uint256",
          "name": "received",
          "type": "uint256"
        }
      ],
      "name": "NotEnoughReceived",
      "type": "error"
    },
    {
      "inputs": [],
      "name": "OwnerDoesNotExist",
      "type": "error"
    },
    {
      "inputs": [
        {
          "internalType": "uint256",
          "name": "surplus",
          "type": "uint256"
        }
      ],
      "name": "SupplyLimitExceeded",
      "type": "error"
    },
    {
      "inputs": [
        {
          "internalType": "State",
          "name": "from",
          "type": "uint256"
        },
        {
          "internalType": "State",
          "name": "to",
          "type": "uint256"
        }
      ],
      "name": "TransitionAlreadyExists",
      "type": "error"
    },
    {
      "inputs": [
        {
          "internalType": "State",
          "name": "from",
          "type": "uint256"
        },
        {
          "internalType": "State",
          "name": "to",
          "type": "uint256"
        }
      ],
      "name": "TransitionDoesNotExist",
      "type": "error"
    },
    {
      "inputs": [
        {
          "internalType": "address",
          "name": "",
          "type": "address"
        }
      ],
      "name": "UnauthorizedAccount",
      "type": "error"
    },
    {
      "inputs": [
        {
          "internalType": "State",
          "name": "expectedStatesBitmap",
          "type": "uint256"
        },
        {
          "internalType": "State",
          "name": "currentState",
          "type": "uint256"
        }
      ],
      "name": "UnexpectedState",
      "type": "error"
    },
    {
      "anonymous": false,
      "inputs": [
        {
          "indexed": true,
          "internalType": "address",
          "name": "previousOwner",
          "type": "address"
        }
      ],
      "name": "AccountClosed",
      "type": "event"
    },
    {
      "anonymous": false,
      "inputs": [
        {
          "indexed": true,
          "internalType": "address",
          "name": "owner",
          "type": "address"
        }
      ],
      "name": "AccountOpened",
      "type": "event"
    },
    {
      "anonymous": false,
      "inputs": [
        {
          "indexed": true,
          "internalType": "address",
          "name": "owner",
          "type": "address"
        },
        {
          "components": [
            {
              "internalType": "address",
              "name": "token",
              "type": "address"
            },
            {
              "internalType": "uint256",
              "name": "amount",
              "type": "uint256"
            }
          ],
          "indexed": false,
          "internalType": "struct Asset[]",
          "name": "collateral",
          "type": "tuple[]"
        },
        {
          "components": [
            {
              "internalType": "address",
              "name": "token",
              "type": "address"
            },
            {
              "internalType": "uint256",
              "name": "amount",
              "type": "uint256"
            }
          ],
          "indexed": false,
          "internalType": "struct Asset",
          "name": "leverage",
          "type": "tuple"
        }
      ],
      "name": "AccountRegistered",
      "type": "event"
    },
    {
      "anonymous": false,
      "inputs": [
        {
          "indexed": true,
          "internalType": "address",
          "name": "owner",
          "type": "address"
        }
      ],
      "name": "AccountSuspended",
      "type": "event"
    },
    {
      "anonymous": false,
      "inputs": [
        {
          "indexed": false,
          "internalType": "uint8",
          "name": "version",
          "type": "uint8"
        }
      ],
      "name": "Initialized",
      "type": "event"
    },
    {
      "anonymous": false,
      "inputs": [
        {
          "indexed": true,
          "internalType": "address",
          "name": "owner",
          "type": "address"
        },
        {
          "indexed": false,
          "internalType": "uint256",
          "name": "supplied",
          "type": "uint256"
        },
        {
          "indexed": false,
          "internalType": "int256",
          "name": "remaining",
          "type": "int256"
        }
      ],
      "name": "LeverageSupplied",
      "type": "event"
    },
    {
      "anonymous": false,
      "inputs": [
        {
          "indexed": true,
          "internalType": "address",
          "name": "previousOwner",
          "type": "address"
        },
        {
          "indexed": true,
          "internalType": "address",
          "name": "newOwner",
          "type": "address"
        }
      ],
      "name": "OwnerHasBeenAssigned",
      "type": "event"
    },
    {
      "anonymous": false,
      "inputs": [
        {
          "indexed": true,
          "internalType": "address",
          "name": "previousOwner",
          "type": "address"
        }
      ],
      "name": "OwnerHasBeenUnassigned",
      "type": "event"
    },
    {
      "anonymous": false,
      "inputs": [
        {
          "indexed": false,
          "internalType": "State",
          "name": "from",
          "type": "uint256"
        },
        {
          "indexed": false,
          "internalType": "State",
          "name": "to",
          "type": "uint256"
        }
      ],
      "name": "StateChanged",
      "type": "event"
    },
    {
      "inputs": [
        {
          "components": [
            {
              "internalType": "address",
              "name": "target",
              "type": "address"
            },
            {
              "internalType": "uint256",
              "name": "value",
              "type": "uint256"
            },
            {
              "internalType": "bytes",
              "name": "payload",
              "type": "bytes"
            }
          ],
          "internalType": "struct Command",
          "name": "_cmd",
          "type": "tuple"
        }
      ],
      "name": "execute",
      "outputs": [],
      "stateMutability": "nonpayable",
      "type": "function"
    },
    {
      "inputs": [],
      "name": "factory",
      "outputs": [
        {
          "internalType": "address",
          "name": "",
          "type": "address"
        }
      ],
      "stateMutability": "view",
      "type": "function"
    },
    {
      "inputs": [],
      "name": "initialize",
      "outputs": [],
      "stateMutability": "nonpayable",
      "type": "function"
    },
    {
      "inputs": [],
      "name": "leverage",
      "outputs": [
        {
          "internalType": "address",
          "name": "token",
          "type": "address"
        },
        {
          "internalType": "uint256",
          "name": "amount",
          "type": "uint256"
        }
      ],
      "stateMutability": "view",
      "type": "function"
    },
    {
      "inputs": [],
      "name": "oas",
      "outputs": [
        {
          "internalType": "address",
          "name": "",
          "type": "address"
        }
      ],
      "stateMutability": "view",
      "type": "function"
    },
    {
      "inputs": [],
      "name": "owner",
      "outputs": [
        {
          "internalType": "address",
          "name": "",
          "type": "address"
        }
      ],
      "stateMutability": "view",
      "type": "function"
    },
    {
      "inputs": [
        {
          "internalType": "address",
          "name": "_user",
          "type": "address"
        },
        {
          "components": [
            {
              "internalType": "address",
              "name": "token",
              "type": "address"
            },
            {
              "internalType": "uint256",
              "name": "amount",
              "type": "uint256"
            }
          ],
          "internalType": "struct Asset[]",
          "name": "_collateral",
          "type": "tuple[]"
        },
        {
          "components": [
            {
              "internalType": "address",
              "name": "token",
              "type": "address"
            },
            {
              "internalType": "uint256",
              "name": "amount",
              "type": "uint256"
            }
          ],
          "internalType": "struct Asset",
          "name": "_leverage",
          "type": "tuple"
        }
      ],
      "name": "register",
      "outputs": [],
      "stateMutability": "payable",
      "type": "function"
    },
    {
      "inputs": [
        {
          "internalType": "uint256",
          "name": "_amount",
          "type": "uint256"
        }
      ],
      "name": "supply",
      "outputs": [
        {
          "internalType": "bool",
          "name": "allocationFinished_",
          "type": "bool"
        }
      ],
      "stateMutability": "payable",
      "type": "function"
    },
    {
      "inputs": [
        {
          "components": [
            {
              "internalType": "uint256[]",
              "name": "sequence",
              "type": "uint256[]"
            },
            {
              "components": [
                {
                  "internalType": "string",
                  "name": "protocol",
                  "type": "string"
                },
                {
                  "components": [
                    {
                      "components": [
                        {
                          "internalType": "uint256",
                          "name": "poolId",
                          "type": "uint256"
                        },
                        {
                          "internalType": "bytes",
                          "name": "extraData",
                          "type": "bytes"
                        }
                      ],
                      "internalType": "struct PositionDescriptor",
                      "name": "descriptor",
                      "type": "tuple"
                    },
                    {
                      "components": [
                        {
                          "internalType": "address",
                          "name": "token",
                          "type": "address"
                        },
                        {
                          "internalType": "uint256",
                          "name": "amount",
                          "type": "uint256"
                        }
                      ],
                      "internalType": "struct Asset[]",
                      "name": "input",
                      "type": "tuple[]"
                    },
                    {
                      "internalType": "uint256",
                      "name": "minLiquidityOut",
                      "type": "uint256"
                    }
                  ],
                  "internalType": "struct IIncreasePositionBuilder.IncreasePositionRequest",
                  "name": "request",
                  "type": "tuple"
                }
              ],
              "internalType": "struct IOrderBuilder.IncreasePositionInstruction[]",
              "name": "increasePositionInstructions",
              "type": "tuple[]"
            },
            {
              "components": [
                {
                  "internalType": "string",
                  "name": "protocol",
                  "type": "string"
                },
                {
                  "components": [
                    {
                      "components": [
                        {
                          "internalType": "uint256",
                          "name": "poolId",
                          "type": "uint256"
                        },
                        {
                          "internalType": "bytes",
                          "name": "extraData",
                          "type": "bytes"
                        }
                      ],
                      "internalType": "struct PositionDescriptor",
                      "name": "descriptor",
                      "type": "tuple"
                    },
                    {
                      "internalType": "uint256",
                      "name": "liquidity",
                      "type": "uint256"
                    },
                    {
                      "components": [
                        {
                          "internalType": "address",
                          "name": "token",
                          "type": "address"
                        },
                        {
                          "internalType": "uint256",
                          "name": "amount",
                          "type": "uint256"
                        }
                      ],
                      "internalType": "struct Asset[]",
                      "name": "minOutput",
                      "type": "tuple[]"
                    }
                  ],
                  "internalType": "struct IDecreasePositionBuilder.DecreasePositionRequest",
                  "name": "request",
                  "type": "tuple"
                }
              ],
              "internalType": "struct IOrderBuilder.DecreasePositionInstruction[]",
              "name": "decreasePositionInstructions",
              "type": "tuple[]"
            },
            {
              "components": [
                {
                  "internalType": "string",
                  "name": "protocol",
                  "type": "string"
                },
                {
                  "components": [
                    {
                      "internalType": "bytes",
                      "name": "path",
                      "type": "bytes"
                    },
                    {
                      "internalType": "bytes",
                      "name": "extraData",
                      "type": "bytes"
                    },
                    {
                      "internalType": "uint256",
                      "name": "amountIn",
                      "type": "uint256"
                    },
                    {
                      "internalType": "uint256",
                      "name": "minAmountOut",
                      "type": "uint256"
                    },
                    {
                      "internalType": "address",
                      "name": "recipient",
                      "type": "address"
                    }
                  ],
                  "internalType": "struct IExchangeBuilder.ExchangeRequest",
                  "name": "request",
                  "type": "tuple"
                }
              ],
              "internalType": "struct IOrderBuilder.ExchangeInstruction[]",
              "name": "exchangeInstructions",
              "type": "tuple[]"
            },
            {
              "components": [
                {
                  "internalType": "string",
                  "name": "protocol",
                  "type": "string"
                },
                {
                  "components": [
                    {
                      "internalType": "bytes",
                      "name": "path",
                      "type": "bytes"
                    },
                    {
                      "internalType": "bytes",
                      "name": "extraData",
                      "type": "bytes"
                    },
                    {
                      "internalType": "uint256",
                      "name": "amountIn",
                      "type": "uint256"
                    },
                    {
                      "internalType": "uint256",
                      "name": "minAmountOut",
                      "type": "uint256"
                    },
                    {
                      "internalType": "address",
                      "name": "recipient",
                      "type": "address"
                    }
                  ],
                  "internalType": "struct IExchangeBuilder.ExchangeRequest",
                  "name": "request",
                  "type": "tuple"
                }
              ],
              "internalType": "struct IOrderBuilder.ExchangeAllInstruction[]",
              "name": "exchangeAllInstructions",
              "type": "tuple[]"
            }
          ],
          "internalType": "struct Script[]",
          "name": "_executeBefore",
          "type": "tuple[]"
        }
      ],
      "name": "tryClose",
      "outputs": [
        {
          "internalType": "bool",
          "name": "success_",
          "type": "bool"
        }
      ],
      "stateMutability": "nonpayable",
      "type": "function"
    },
    {
      "inputs": [],
      "name": "validationHub",
      "outputs": [
        {
          "internalType": "address",
          "name": "",
          "type": "address"
        }
      ],
      "stateMutability": "view",
      "type": "function"
    },
    {
      "stateMutability": "payable",
      "type": "receive"
    }
  ],
  "bytecode": "0x610180346200015c57601f62002e9e38819003918201601f19168301916001600160401b03831184841017620001615780849260409485528339810103126200015c576200005b6020620000538362000177565b920162000177565b90600160ff1b60805260a052610100906001825261012090600282526101406004815261016091600883523360c05260e05260405192612d1194856200018d86396080518581816109cd01528181610e150152818161100d0152611467015260a05185818161046a0152610887015260c0518581816101d9015281816108f601528181610fc4015261171a015260e05185818161011b01526117e00152518481816109f301528181610fec0152611813015251838181610201015281816109a701526110670152518281816103d301528181610a1e015281816115f50152818161176301526117b8015251818181610ade0152818161174201526118990152f35b600080fd5b634e487b7160e01b600052604160045260246000fd5b51906001600160a01b03821682036200015c5756fe6080604052600436101561001b575b361561001957600080fd5b005b60003560e01c80631f9cefa3146100bb5780632c86d98e146100b657806335403023146100b15780633db0a3e4146100ac5780635c1c6dcd146100a75780638129fc1c146100a25780638da5cb5b1461009d57806390631d8e14610098578063b41af79b146100935763c45a01550361000e576108ab565b61083c565b610794565b610705565b6105a9565b61033f565b6102c7565b610198565b61013f565b6100d0565b60009103126100cb57565b600080fd5b346100cb5760007ffffffffffffffffffffffffffffffffffffffffffffffffffffffffffffffffc3601126100cb57602060405173ffffffffffffffffffffffffffffffffffffffff7f0000000000000000000000000000000000000000000000000000000000000000168152f35b346100cb5760007ffffffffffffffffffffffffffffffffffffffffffffffffffffffffffffffffc3601126100cb57604073ffffffffffffffffffffffffffffffffffffffff6001541660025482519182526020820152f35b60207ffffffffffffffffffffffffffffffffffffffffffffffffffffffffffffffffc3601126100cb5773ffffffffffffffffffffffffffffffffffffffff7f0000000000000000000000000000000000000000000000000000000000000000163303610297577f000000000000000000000000000000000000000000000000000000000000000061022861143a565b8116156102535761024f61023d60043561153c565b60405190151581529081906020820190565b0390f35b61025b61143a565b6040517f8e653d8c00000000000000000000000000000000000000000000000000000000815260048101929092526024820152604490fd5b0390fd5b60246040517f32b2baa3000000000000000000000000000000000000000000000000000000008152336004820152fd5b346100cb5760207ffffffffffffffffffffffffffffffffffffffffffffffffffffffffffffffffc3601126100cb5767ffffffffffffffff6004358181116100cb57366023820112156100cb5780600401359182116100cb573660248360051b830101116100cb5761024f91602461023d9201611701565b346100cb577ffffffffffffffffffffffffffffffffffffffffffffffffffffffffffffffffc6020813601126100cb5760049081359167ffffffffffffffff83116100cb5760608382019284360301126100cb5773ffffffffffffffffffffffffffffffffffffffff7f608a8c8eefc529e0455c0b7a17a3c2a1a40a7f0cd5045e3b46a4aa8ae853476d54163303610578577f00000000000000000000000000000000000000000000000000000000000000006103fa61143a565b81161561052f5750604482359361041085610776565b019061041c8284612833565b6000929150156104a457505061044b6100199361044661043f61049e9486612833565b3691612884565b6128bb565b61045361168f565b73ffffffffffffffffffffffffffffffffffffffff7f000000000000000000000000000000000000000000000000000000000000000016815290600060208301526040820152612614565b90612a39565b9091506040519060808201604052600f926f30313233343536373839616263646566845260028301936028855281604a85015260018760601b925b8080018601602285831a858116516023840153871c5191015301926014841461050b57926001906104df565b505050506100199361044661044b9261049e9461307860028251019152815261291c565b9061029361053b61143a565b6040519384937f8e653d8c000000000000000000000000000000000000000000000000000000008552840160209093929193604081019481520152565b602490604051907f32b2baa30000000000000000000000000000000000000000000000000000000082523390820152fd5b346100cb576000807ffffffffffffffffffffffffffffffffffffffffffffffffffffffffffffffffc3601126107025780546105fc60ff8260081c1615809281936106f4575b81156106d4575b5061091a565b8061062d60017fffffffffffffffffffffffffffffffffffffffffffffffffffffffffffffff006000541617600055565b61069e575b61063a6109a5565b6106415780f35b61066e7fffffffffffffffffffffffffffffffffffffffffffffffffffffffffffff00ff60005416600055565b604051600181527f7f26b83ff96e1f2b6a682f133852f6798a09c465da95921460cefb384740249890602090a180f35b6106cf6101007fffffffffffffffffffffffffffffffffffffffffffffffffffffffffffff00ff6000541617600055565b610632565b303b159150816106e6575b50386105f6565b6001915060ff1614386106df565b600160ff82161091506105ef565b80fd5b346100cb5760007ffffffffffffffffffffffffffffffffffffffffffffffffffffffffffffffffc3601126100cb5760207f608a8c8eefc529e0455c0b7a17a3c2a1a40a7f0cd5045e3b46a4aa8ae853476d5473ffffffffffffffffffffffffffffffffffffffff60405191168152f35b73ffffffffffffffffffffffffffffffffffffffff8116036100cb57565b60807ffffffffffffffffffffffffffffffffffffffffffffffffffffffffffffffffc3601126100cb576004356107ca81610776565b6024359067ffffffffffffffff908183116100cb57366023840112156100cb5782600401359182116100cb573660248360061b850101116100cb5760407fffffffffffffffffffffffffffffffffffffffffffffffffffffffffffffffbc3601126100cb576024610019930190610fab565b346100cb5760007ffffffffffffffffffffffffffffffffffffffffffffffffffffffffffffffffc3601126100cb57602060405173ffffffffffffffffffffffffffffffffffffffff7f0000000000000000000000000000000000000000000000000000000000000000168152f35b346100cb5760007ffffffffffffffffffffffffffffffffffffffffffffffffffffffffffffffffc3601126100cb57602060405173ffffffffffffffffffffffffffffffffffffffff7f0000000000000000000000000000000000000000000000000000000000000000168152f35b1561092157565b60846040517f08c379a000000000000000000000000000000000000000000000000000000000815260206004820152602e60248201527f496e697469616c697a61626c653a20636f6e747261637420697320616c72656160448201527f647920696e697469616c697a65640000000000000000000000000000000000006064820152fd5b7f0000000000000000000000000000000000000000000000000000000000000000906109f1827f0000000000000000000000000000000000000000000000000000000000000000610bd8565b7f0000000000000000000000000000000000000000000000000000000000000000610a1c8382610bd8565b7f000000000000000000000000000000000000000000000000000000000000000092610a488482610e12565b90610a7f826000527f293e03fddfce341cb13bb358c9a7038016486a7e2bc64d03d4a5124685f6cfd7602052604060002054151590565b610b9e57506000527f293e03fddfce341cb13bb358c9a7038016486a7e2bc64d03d4a5124685f6cfd78060205260406000207fffffffffffffffffffffffffffffffffffffffffffffffff0000000000000000906002828254161790557f000000000000000000000000000000000000000000000000000000000000000091610b088387610e12565b95610b3f876000527f293e03fddfce341cb13bb358c9a7038016486a7e2bc64d03d4a5124685f6cfd7602052604060002054151590565b610b645750610b6294956000526020526003604060002091825416179055610cb2565b565b6040517fb57df58c000000000000000000000000000000000000000000000000000000008152600481019190915260248101849052604490fd5b6040517fb57df58c000000000000000000000000000000000000000000000000000000008152600481019190915260248101859052604490fd5b90610be38183610e12565b91610c1a836000527f293e03fddfce341cb13bb358c9a7038016486a7e2bc64d03d4a5124685f6cfd7602052604060002054151590565b610c775750506000527f293e03fddfce341cb13bb358c9a7038016486a7e2bc64d03d4a5124685f6cfd7602052604060002060017fffffffffffffffffffffffffffffffffffffffffffffffff0000000000000000825416179055565b6040517fb57df58c00000000000000000000000000000000000000000000000000000000815260048101919091526024810191909152604490fd5b90610cbd8183610e12565b91610cf4836000527f293e03fddfce341cb13bb358c9a7038016486a7e2bc64d03d4a5124685f6cfd7602052604060002054151590565b610c775750506000527f293e03fddfce341cb13bb358c9a7038016486a7e2bc64d03d4a5124685f6cfd7602052604060002060047fffffffffffffffffffffffffffffffffffffffffffffffff0000000000000000825416179055565b7f4e487b7100000000000000000000000000000000000000000000000000000000600052604160045260246000fd5b67ffffffffffffffff8111610d9457604052565b610d51565b6060810190811067ffffffffffffffff821117610d9457604052565b6040810190811067ffffffffffffffff821117610d9457604052565b90601f7fffffffffffffffffffffffffffffffffffffffffffffffffffffffffffffffe0910116810190811067ffffffffffffffff821117610d9457604052565b907f000000000000000000000000000000000000000000000000000000000000000082141580610f50575b610f1e57610e9a610e967f7fffffffffffffffffffffffffffffffffffffffffffffffffffffffffffffff83168015907fffffffffffffffffffffffffffffffffffffffffffffffffffffffffffffffff810116011590565b1590565b610eeb57604080516020810193845290810191909152610ee581606081015b037fffffffffffffffffffffffffffffffffffffffffffffffffffffffffffffffe08101835282610dd1565b51902090565b6040517f815506a80000000000000000000000000000000000000000000000000000000081526004810191909152602490fd5b6040517f815506a800000000000000000000000000000000000000000000000000000000815260048101839052602490fd5b50610fa6610e967f7fffffffffffffffffffffffffffffffffffffffffffffffffffffffffffffff84168015907fffffffffffffffffffffffffffffffffffffffffffffffffffffffffffffffff810116011590565b610e3d565b929173ffffffffffffffffffffffffffffffffffffffff7f0000000000000000000000000000000000000000000000000000000000000000163303610297577f00000000000000000000000000000000000000000000000000000000000000007f00000000000000000000000000000000000000000000000000000000000000001761103561143a565b81161561025357506000805b82811061108b575050610b629293610eb961106592604051948593602085016111fd565b7f0000000000000000000000000000000000000000000000000000000000000000611277565b8060061b84016020810135908115611147576110ae6110a98261148a565b611497565b1561112e5747905b8282106110c857505050600101611041565b6110d46102939161148a565b916040519384937f43bb14900000000000000000000000000000000000000000000000000000000085526004850160409194939273ffffffffffffffffffffffffffffffffffffffff606083019616825260208201520152565b61114161113a8261148a565b3090612aed565b906110b6565b6111536102939161148a565b6040517f3b9b86ec00000000000000000000000000000000000000000000000000000000815273ffffffffffffffffffffffffffffffffffffffff90911660048201529081906024820190565b7f4e487b7100000000000000000000000000000000000000000000000000000000600052603260045260246000fd5b6020809173ffffffffffffffffffffffffffffffffffffffff81356111f381610776565b1684520135910152565b91909392806080840173ffffffffffffffffffffffffffffffffffffffff8097168552608060208601525260a08301919060005b818110611258575050509260443561124881610776565b1660408201526060606435910152565b90919280611268600192866111cf565b60409081019401929101611231565b906112ca7f7fffffffffffffffffffffffffffffffffffffffffffffffffffffffffffffff83168015907fffffffffffffffffffffffffffffffffffffffffffffffffffffffffffffffff810116011590565b15611409576112e0826112db61143a565b610e12565b611316816000527f293e03fddfce341cb13bb358c9a7038016486a7e2bc64d03d4a5124685f6cfd7602052604060002054151590565b156113c557610b629291611367916000527f293e03fddfce341cb13bb358c9a7038016486a7e2bc64d03d4a5124685f6cfd7602052611362604060002067ffffffffffffffff90541690565b612b4b565b7f1c0c6794b8c626515ef0eaa59cf29f712f686771b359ff1a5a05738b92d054848161139161143a565b604080519182526020820192909252a17f293e03fddfce341cb13bb358c9a7038016486a7e2bc64d03d4a5124685f6cfd655565b826113ce61143a565b6040517f8d157bec00000000000000000000000000000000000000000000000000000000815260048101919091526024810191909152604490fd5b602482604051907f815506a80000000000000000000000000000000000000000000000000000000082526004820152fd5b7f293e03fddfce341cb13bb358c9a7038016486a7e2bc64d03d4a5124685f6cfd65490811561146557565b7f00000000000000000000000000000000000000000000000000000000000000009150565b3561149481610776565b90565b73ffffffffffffffffffffffffffffffffffffffff1673eeeeeeeeeeeeeeeeeeeeeeeeeeeeeeeeeeeeeeee81149081156114cf575090565b90501590565b7f4e487b7100000000000000000000000000000000000000000000000000000000600052601160045260246000fd5b9190820180921161151157565b6114d5565b8181039291600013801582851316918412161761151157565b9190820391821161151157565b90600091801561166d5761155a61155582600354611504565b600355565b7f608a8c8eefc529e0455c0b7a17a3c2a1a40a7f0cd5045e3b46a4aa8ae853476d54600254917fd81dc1ab773745d6113d7b56db63d143b38c598946eaf907995eeba71ee2879973ffffffffffffffffffffffffffffffffffffffff600354936115e26115c78688611516565b60405193849316958360209093929193604081019481520152565b0390a280820361161e57505090506116197f00000000000000000000000000000000000000000000000000000000000000006116d6565b600190565b818111611629575050565b610293916116369161152f565b6040519182917f0810bd48000000000000000000000000000000000000000000000000000000008352600483019190602083019252565b61029361115360015473ffffffffffffffffffffffffffffffffffffffff1690565b60405190610b6282610d99565b67ffffffffffffffff8111610d9457601f017fffffffffffffffffffffffffffffffffffffffffffffffffffffffffffffffe01660200190565b604051602081019181831067ffffffffffffffff841117610d9457610b629260405260008252611277565b919073ffffffffffffffffffffffffffffffffffffffff7f0000000000000000000000000000000000000000000000000000000000000000163303610297577f00000000000000000000000000000000000000000000000000000000000000007f0000000000000000000000000000000000000000000000000000000000000000179261178c61143a565b84161561179e576114949293506117a7565b8361025b61143a565b9080156118c2576117b661143a565b7f000000000000000000000000000000000000000000000000000000000000000014611894575b907f00000000000000000000000000000000000000000000000000000000000000009060005b83811061183757505050506116197f00000000000000000000000000000000000000000000000000000000000000006116d6565b8060051b8201357fffffffffffffffffffffffffffffffffffffffffffffffffffffffffffffff61833603018112156100cb576118798461187e9285016119b2565b151590565b1561188b57600101611803565b50505050600090565b6118bd7f00000000000000000000000000000000000000000000000000000000000000006116d6565b6117dd565b60046040517fe1d362ef000000000000000000000000000000000000000000000000000000008152fd5b9035907fffffffffffffffffffffffffffffffffffffffffffffffffffffffffffffffe1813603018212156100cb570180359067ffffffffffffffff82116100cb57602001918160051b360383136100cb57565b60005b8381106119535750506000910152565b8181015183820152602001611943565b907fffffffffffffffffffffffffffffffffffffffffffffffffffffffffffffffe0601f60209361199f81518092818752878088019101611940565b0116010190565b6040513d6000823e3d90fd5b9073__$c19b1403ed80f9899923cec92f3eb3423f$__9060005b6119d684806118ec565b9050811015611b0c576119ea81838661207a565b833b156100cb57604090815180927fd670be0c00000000000000000000000000000000000000000000000000000000825260248201602090816004850152845180915260449180838601938360051b87010196019360005b838110611a8e57505050505050806000920381875af49081611a75575b50611a6d5750505050600090565b6001016119cc565b80611a82611a8892610d80565b806100c0565b38611a5f565b9180611af9897fffffffffffffffffffffffffffffffffffffffffffffffffffffffffffffffbc83989a600196989a9c03018a52868b5173ffffffffffffffffffffffffffffffffffffffff8151168352848101518584015201519060609081898201520190611963565b9801960191019187959492939193611a42565b50505050600190565b9190811015611b255760051b0190565b6111a0565b9190811015611b255760051b810135907fffffffffffffffffffffffffffffffffffffffffffffffffffffffffffffffc1813603018212156100cb570190565b67ffffffffffffffff8111610d945760051b60200190565b9060209081838203126100cb57825167ffffffffffffffff938482116100cb57019080601f830112156100cb578151611bba81611b6a565b94604092611bca84519788610dd1565b828752858088019360051b860101948186116100cb57868101935b868510611bf757505050505050505090565b84518481116100cb578201606090817fffffffffffffffffffffffffffffffffffffffffffffffffffffffffffffffe082870301126100cb57875191611c3c83610d99565b8a820151611c4981610776565b8352888201518b840152810151908682116100cb57019184603f840112156100cb578983015191611c798361169c565b611c858a519182610dd1565b838152868a85870101116100cb57611ca68c959486958c8785019101611940565b89820152815201940193611be5565b90357fffffffffffffffffffffffffffffffffffffffffffffffffffffffffffffffe1823603018112156100cb57016020813591019167ffffffffffffffff82116100cb5781360383136100cb57565b601f82602094937fffffffffffffffffffffffffffffffffffffffffffffffffffffffffffffffe0938186528686013760008582860101520116010190565b9060208252611d67611d568280611cb5565b604060208601526060850191611d05565b9060208101357fffffffffffffffffffffffffffffffffffffffffffffffffffffffffffffff61823603018112156100cb57019160407fffffffffffffffffffffffffffffffffffffffffffffffffffffffffffffffe082840301910152608073ffffffffffffffffffffffffffffffffffffffff81611e16611dfb611ded8780611cb5565b60a0885260a0880191611d05565b611e086020880188611cb5565b908783036020890152611d05565b9460408101356040860152606081013560608601520135611e3681610776565b1691015290565b90357fffffffffffffffffffffffffffffffffffffffffffffffffffffffffffffffa1823603018112156100cb570190565b90357fffffffffffffffffffffffffffffffffffffffffffffffffffffffffffffffc1823603018112156100cb570190565b906040611eb961149493803584526020810190611cb5565b9190928160208201520191611d05565b90357fffffffffffffffffffffffffffffffffffffffffffffffffffffffffffffffe1823603018112156100cb57016020813591019167ffffffffffffffff82116100cb578160061b360383136100cb57565b9160209082815201919060005b818110611f365750505090565b90919280611f46600192866111cf565b60409081019401929101611f29565b6114949160208252611f89611f7e611f6d8380611cb5565b604060208701526060860191611d05565b916020810190611e3d565b9160407fffffffffffffffffffffffffffffffffffffffffffffffffffffffffffffffe082840301910152611fe7611fd2611fc48480611e6f565b606084526060840190611ea1565b92602081013560208401526040810190611ec9565b916040818503910152611f1c565b906020825261200a611f7e611f6d8380611cb5565b9160407fffffffffffffffffffffffffffffffffffffffffffffffffffffffffffffffe0828403019101526040806120716120566120488680611e6f565b606086526060860190611ea1565b6120636020870187611ec9565b908683036020880152611f1c565b93013591015290565b9173ffffffffffffffffffffffffffffffffffffffff606092169260208101906120a482826118ec565b9390506040948583016120b781856118ec565b92905084016120c681866118ec565b905060808601916120d783886118ec565b9690506120ee816120e88a806118ec565b90611b15565b3599808b10156121865750505050505050509261211c612150936121166000979488976118ec565b90611b2a565b90519485809481937f053e094800000000000000000000000000000000000000000000000000000000835260048301611ff5565b03925af190811561218157600091612166575090565b611494913d8091833e6121798183610dd1565b810190611b82565b6119a6565b8699509561219b9192939495979a9896611504565b988988101561220f57505050505093600096936121d58897946121cf6121c76121db966121509a6118ec565b94909561152f565b9061152f565b91611b2a565b90519485809481937f3a755c2400000000000000000000000000000000000000000000000000000000835260048301611f55565b92975092976122219195508790611504565b968786101561227f5750505093600096936121d58897946121cf6121c761224b966121509a6118ec565b90519485809481937fc87c11a200000000000000000000000000000000000000000000000000000000835260048301611d44565b935080955061228e9196611504565b94858410156122ea575093600096936121d58897946121cf6121c76122b6966121509a6118ec565b90519485809481937f07a5dead00000000000000000000000000000000000000000000000000000000835260048301611d44565b86517f6fc45b4f0000000000000000000000000000000000000000000000000000000081526004810191909152602490fd5b91908260409103126100cb576040516040810181811067ffffffffffffffff821117610d94576040526020808294805161235581610776565b84520151910152565b9192909260608301936060845280518095526080840160208092019560005b8181106123b5575050610b62939495509401906020809173ffffffffffffffffffffffffffffffffffffffff81511684520151910152565b9091836040826123e86001948c516020809173ffffffffffffffffffffffffffffffffffffffff81511684520151910152565b01980191019691909661237d565b9073ffffffffffffffffffffffffffffffffffffffff808316908115612465577f608a8c8eefc529e0455c0b7a17a3c2a1a40a7f0cd5045e3b46a4aa8ae853476d938454945583167f76122449b9f9900601b55986d5b53d8d3f84b676f9d216a64334a914d21accd1600080a3565b60046040517f55e7da06000000000000000000000000000000000000000000000000000000008152fd5b600060035573ffffffffffffffffffffffffffffffffffffffff7f608a8c8eefc529e0455c0b7a17a3c2a1a40a7f0cd5045e3b46a4aa8ae853476d54167f2077f6e031a8faa17b96131641b087822c10522fe1a94841987eccbe8f619f7f600080a2565b73ffffffffffffffffffffffffffffffffffffffff7f608a8c8eefc529e0455c0b7a17a3c2a1a40a7f0cd5045e3b46a4aa8ae853476d54167f89e8e0cb75caa917b6632d3053b50971462790ea99d9fe21b4b27ce710175156600080a2565b7f608a8c8eefc529e0455c0b7a17a3c2a1a40a7f0cd5045e3b46a4aa8ae853476d73ffffffffffffffffffffffffffffffffffffffff8154169081156125ea577fa29911196d428d7968f8bde7515181a391bfa16e26042f789f3f2da7665e25de906000809155827f870217a7bae08cb1e27777025a86e87ce4df51b0e2c6cc144ed2976e78a5c79a8280a2806001558060025580a2565b60046040517fbd704aae000000000000000000000000000000000000000000000000000000008152fd5b73ffffffffffffffffffffffffffffffffffffffff81511660406020830151920151906040519161264483610d99565b602983527f416464726573733a206c6f772d6c6576656c2063616c6c20776974682076616c60208401527f7565206661696c6564000000000000000000000000000000000000000000000060408401528347106126e357600081611494956020839451920190855af13d156126db573d916126be8361169c565b926126cc6040519485610dd1565b83523d6000602085013e612767565b606091612767565b60846040517f08c379a000000000000000000000000000000000000000000000000000000000815260206004820152602660248201527f416464726573733a20696e73756666696369656e742062616c616e636520666f60448201527f722063616c6c00000000000000000000000000000000000000000000000000006064820152fd5b919290156127e2575081511561277b575090565b3b156127845790565b60646040517f08c379a000000000000000000000000000000000000000000000000000000000815260206004820152601d60248201527f416464726573733a2063616c6c20746f206e6f6e2d636f6e74726163740000006044820152fd5b8251909150156127f55750805190602001fd5b610293906040519182917f08c379a0000000000000000000000000000000000000000000000000000000008352602060048401526024830190611963565b9035907fffffffffffffffffffffffffffffffffffffffffffffffffffffffffffffffe1813603018212156100cb570180359067ffffffffffffffff82116100cb576020019181360383136100cb57565b9291926128908261169c565b9161289e6040519384610dd1565b8294818452818301116100cb578281602093846000960137010152565b6040611494917fffffffffffffffffffffffffffffffffffffffff00000000000000000000000093825194826128fb879451809260208088019101611940565b8301916000602084015260601b16602c820152036020810184520182610dd1565b60405161292881610db5565b601480825260209283917f656d70747944617461466f724f70657261746f72000000000000000000000000838501526040519360005b828110612a2557505050916129c36036826129ee9461298d611494976034840160008152815193849201611940565b81017f28290000000000000000000000000000000000000000000000000000000000006034820152036016810184520182610dd1565b8381519101207fffffffff000000000000000000000000000000000000000000000000000000001690565b91610eb960405193849283017fffffffff000000000000000000000000000000000000000000000000000000006004921681520190565b81810185015186820186015286940161295e565b9190612a4e9060208082518301019101611b82565b91606060408051612a5e81610d99565b600081526000602082015201528251907fffffffffffffffffffffffffffffffffffffffffffffffffffffffffffffffff820191821161151157612aa86020809201359285612ad9565b51015260005b8251811015612ad45780612acd612ac760019386612ad9565b51612614565b5001612aae565b509050565b8051821015611b255760209160051b010190565b602460106020939284936014526f70a082310000000000000000000000006000525afa601f3d11166020510290565b7f4e487b7100000000000000000000000000000000000000000000000000000000600052605160045260246000fd5b9081600114612b86575080600214612b7d5780600314612b7457600403612b1c57610b62612552565b50610b626124f3565b50610b6261248f565b80915051810160206080838284019303126100cb578083015191612ba983610776565b6040938481015167ffffffffffffffff81116100cb57810182603f820112156100cb578381015193612bda85611b6a565b94612be788519687610dd1565b808652878287019160061b840101928584116100cb5788809101915b848310612cc257505050505073ffffffffffffffffffffffffffffffffffffffff612c577f5f0651ae754e97c1f9b53e213b4ac64372e4f4441d6e6851b17bd129b44260769594936060612cbd940161231c565b931694612c63866123f6565b50612cb38460209073ffffffffffffffffffffffffffffffffffffffff8151167fffffffffffffffffffffffff000000000000000000000000000000000000000060015416176001550151600255565b519283928361235e565b0390a2565b8390612cce888561231c565b8152019101908890612c0356fea26469706673582212208740ea6887208581b43823adb9e45ad1aab90ba2b7785f408660bf8b0eddd16f64736f6c63430008130033",
  "linkReferences": {
    "contracts/orderAssemblySystem/assemblySandbox/libraries/Script.sol": {
      "CommandExecutor": [
        {
          "length": 20,
          "start": 6978
        }
      ]
    }
  },
  "deployedLinkReferences": {
    "contracts/orderAssemblySystem/assemblySandbox/libraries/Script.sol": {
      "CommandExecutor": [
        {
          "length": 20,
          "start": 6581
        }
      ]
    }
  }
}