{
  "_format": "hh-sol-artifact-1",
  "contractName": "PoolRegistry",
  "sourceName": "contracts/portfolioAdministration/liquidityPool/PoolRegistry.sol",
  "abi": [
    {
      "inputs": [
        {
          "internalType": "address",
          "name": "",
          "type": "address"
        }
      ],
      "name": "NotApprovedCaller",
      "type": "error"
    },
    {
      "inputs": [],
      "name": "PoolAlreadyRegistred",
      "type": "error"
    },
    {
      "inputs": [],
      "name": "PoolDoesntExist",
      "type": "error"
    },
    {
      "inputs": [
        {
          "internalType": "address",
          "name": "",
          "type": "address"
        }
      ],
      "name": "UnauthorizedAccount",
      "type": "error"
    },
    {
      "inputs": [
        {
          "internalType": "address",
          "name": "tokenAddress",
          "type": "address"
        }
      ],
      "name": "getPoolAddress",
      "outputs": [
        {
          "internalType": "address",
          "name": "",
          "type": "address"
        }
      ],
      "stateMutability": "view",
      "type": "function"
    },
    {
      "inputs": [
        {
          "internalType": "address",
          "name": "tokenAddress",
          "type": "address"
        }
      ],
      "name": "isPoolExist",
      "outputs": [
        {
          "internalType": "bool",
          "name": "",
          "type": "bool"
        }
      ],
      "stateMutability": "view",
      "type": "function"
    },
    {
      "inputs": [
        {
          "internalType": "address",
          "name": "tokenAddress",
          "type": "address"
        },
        {
          "internalType": "address",
          "name": "newPool",
          "type": "address"
        }
      ],
      "name": "registerPool",
      "outputs": [],
      "stateMutability": "nonpayable",
      "type": "function"
    },
    {
      "inputs": [
        {
          "internalType": "address",
          "name": "pool",
          "type": "address"
        }
      ],
      "name": "suspendPool",
      "outputs": [],
      "stateMutability": "nonpayable",
      "type": "function"
    },
    {
      "inputs": [
        {
          "internalType": "address",
          "name": "pool",
          "type": "address"
        }
      ],
      "name": "unsuspendPool",
      "outputs": [],
      "stateMutability": "nonpayable",
      "type": "function"
    }
  ],
  "bytecode": "0x60808060405234610016576105d8908161001c8239f35b600080fdfe6040608081526004908136101561001557600080fd5b600091823560e01c80631228cbee1461037e5780635319c8771461032d5780637286e5e5146101c457838163ce975d671461011c575063d3c5266d1461005a57600080fd5b8291346101185760207ffffffffffffffffffffffffffffffffffffffffffffffffffffffffffffffffc3601126101185773ffffffffffffffffffffffffffffffffffffffff6100a8610458565b6100b06104c3565b1691823b1561011357839283918351809581937fe6400bbe0000000000000000000000000000000000000000000000000000000083525af190811561010a57506100f75750f35b61010090610480565b6101075780f35b80fd5b513d84823e3d90fd5b505050fd5b5050fd5b808484346101185760207ffffffffffffffffffffffffffffffffffffffffffffffffffffffffffffffffc3601126101185773ffffffffffffffffffffffffffffffffffffffff61016b610458565b6101736104c3565b16803b156101135783918351809581937f5c58ce870000000000000000000000000000000000000000000000000000000083525af190811561010a57506101b8575080f35b6101c190610480565b80f35b50903461032957807ffffffffffffffffffffffffffffffffffffffffffffffffffffffffffffffffc360112610329576101fc610458565b6024359273ffffffffffffffffffffffffffffffffffffffff92838516809503610325573033036102f55761023083610533565b6102cf57505061027f8173ffffffffffffffffffffffffffffffffffffffff166000527f6a265edb6b614ec7aaf85c12ee9bb5dcab7845c5ae5e26be8852d94547d93c1b602052604060002090565b837fffffffffffffffffffffffff0000000000000000000000000000000000000000825416179055167f575427a2c6f581a3e1b9ad23b463deedc84bbda2ac4af1caa6914d39f580798b8380a380f35b517f6148420c000000000000000000000000000000000000000000000000000000008152fd5b6024925051907f3855cbc70000000000000000000000000000000000000000000000000000000082523390820152fd5b8580fd5b8280fd5b50503461037a5760207ffffffffffffffffffffffffffffffffffffffffffffffffffffffffffffffffc36011261037a5760209061037161036c610458565b610533565b90519015158152f35b5080fd5b5091346101075760207ffffffffffffffffffffffffffffffffffffffffffffffffffffffffffffffffc36011261010757506103b8610458565b916103c283610533565b15610431575073ffffffffffffffffffffffffffffffffffffffff61042860209373ffffffffffffffffffffffffffffffffffffffff166000527f6a265edb6b614ec7aaf85c12ee9bb5dcab7845c5ae5e26be8852d94547d93c1b602052604060002090565b54169051908152f35b90517f215db331000000000000000000000000000000000000000000000000000000008152fd5b6004359073ffffffffffffffffffffffffffffffffffffffff8216820361047b57565b600080fd5b67ffffffffffffffff811161049457604052565b7f4e487b7100000000000000000000000000000000000000000000000000000000600052604160045260246000fd5b73ffffffffffffffffffffffffffffffffffffffff7fc8fcad8db84d3cc18b4c41d551ea0ee66dd599cde068d998e57d5e09332c13205416330361050357565b60246040517f32b2baa3000000000000000000000000000000000000000000000000000000008152336004820152fd5b9073ffffffffffffffffffffffffffffffffffffffff61059460009373ffffffffffffffffffffffffffffffffffffffff166000527f6a265edb6b614ec7aaf85c12ee9bb5dcab7845c5ae5e26be8852d94547d93c1b602052604060002090565b541661059c57565b6001915056fea26469706673582212205b388f42aea7fb0d7208a827c37bb7beb6c581859fe2d5c2f82db39966e0f23f64736f6c63430008130033",
  "linkReferences": {},
  "deployedLinkReferences": {}
}