{
  "_format": "hh-sol-artifact-1",
  "contractName": "Pool",
  "sourceName": "contracts/portfolioAdministration/liquidityPool/pool/Pool.sol",
  "abi": [
    {
      "inputs": [],
      "name": "BorrowAmountExceedsBalance",
      "type": "error"
    },
    {
      "inputs": [],
      "name": "MerkleTreeVerificationFailed",
      "type": "error"
    },
    {
      "inputs": [],
      "name": "NoPendingRewards",
      "type": "error"
    },
    {
      "inputs": [],
      "name": "QueueIsEmpty",
      "type": "error"
    },
    {
      "inputs": [],
      "name": "TokenVolumeIsZero",
      "type": "error"
    },
    {
      "inputs": [],
      "name": "TotalDepositThresholdExceeded",
      "type": "error"
    },
    {
      "inputs": [],
      "name": "WithdrawAmountExceedsBalance",
      "type": "error"
    },
    {
      "anonymous": false,
      "inputs": [
        {
          "indexed": false,
          "internalType": "uint256",
          "name": "amount",
          "type": "uint256"
        }
      ],
      "name": "Borrowed",
      "type": "event"
    },
    {
      "anonymous": false,
      "inputs": [
        {
          "indexed": true,
          "internalType": "address",
          "name": "recipient",
          "type": "address"
        },
        {
          "indexed": false,
          "internalType": "uint256",
          "name": "amount",
          "type": "uint256"
        }
      ],
      "name": "Claimed",
      "type": "event"
    },
    {
      "anonymous": false,
      "inputs": [
        {
          "indexed": true,
          "internalType": "address",
          "name": "depositor",
          "type": "address"
        },
        {
          "indexed": false,
          "internalType": "uint256",
          "name": "amount",
          "type": "uint256"
        }
      ],
      "name": "Deposited",
      "type": "event"
    },
    {
      "anonymous": false,
      "inputs": [
        {
          "indexed": false,
          "internalType": "uint8",
          "name": "version",
          "type": "uint8"
        }
      ],
      "name": "Initialized",
      "type": "event"
    },
    {
      "anonymous": false,
      "inputs": [
        {
          "indexed": false,
          "internalType": "address",
          "name": "account",
          "type": "address"
        }
      ],
      "name": "Paused",
      "type": "event"
    },
    {
      "anonymous": false,
      "inputs": [
        {
          "indexed": false,
          "internalType": "uint256",
          "name": "returned",
          "type": "uint256"
        },
        {
          "indexed": false,
          "internalType": "uint256",
          "name": "distributed",
          "type": "uint256"
        }
      ],
      "name": "Returned",
      "type": "event"
    },
    {
      "anonymous": false,
      "inputs": [
        {
          "indexed": true,
          "internalType": "bytes32",
          "name": "role",
          "type": "bytes32"
        },
        {
          "indexed": true,
          "internalType": "bytes32",
          "name": "previousAdminRole",
          "type": "bytes32"
        },
        {
          "indexed": true,
          "internalType": "bytes32",
          "name": "newAdminRole",
          "type": "bytes32"
        }
      ],
      "name": "RoleAdminChanged",
      "type": "event"
    },
    {
      "anonymous": false,
      "inputs": [
        {
          "indexed": true,
          "internalType": "bytes32",
          "name": "role",
          "type": "bytes32"
        },
        {
          "indexed": true,
          "internalType": "address",
          "name": "account",
          "type": "address"
        },
        {
          "indexed": true,
          "internalType": "address",
          "name": "sender",
          "type": "address"
        }
      ],
      "name": "RoleGranted",
      "type": "event"
    },
    {
      "anonymous": false,
      "inputs": [
        {
          "indexed": true,
          "internalType": "bytes32",
          "name": "role",
          "type": "bytes32"
        },
        {
          "indexed": true,
          "internalType": "address",
          "name": "account",
          "type": "address"
        },
        {
          "indexed": true,
          "internalType": "address",
          "name": "sender",
          "type": "address"
        }
      ],
      "name": "RoleRevoked",
      "type": "event"
    },
    {
      "anonymous": false,
      "inputs": [
        {
          "indexed": false,
          "internalType": "address",
          "name": "account",
          "type": "address"
        }
      ],
      "name": "Unpaused",
      "type": "event"
    },
    {
      "anonymous": false,
      "inputs": [
        {
          "indexed": true,
          "internalType": "address",
          "name": "recipient",
          "type": "address"
        },
        {
          "indexed": false,
          "internalType": "uint256",
          "name": "amount",
          "type": "uint256"
        }
      ],
      "name": "Withdrawn",
      "type": "event"
    },
    {
      "inputs": [],
      "name": "BORROWER_ROLE",
      "outputs": [
        {
          "internalType": "bytes32",
          "name": "",
          "type": "bytes32"
        }
      ],
      "stateMutability": "view",
      "type": "function"
    },
    {
      "inputs": [],
      "name": "DEFAULT_ADMIN_ROLE",
      "outputs": [
        {
          "internalType": "bytes32",
          "name": "",
          "type": "bytes32"
        }
      ],
      "stateMutability": "view",
      "type": "function"
    },
    {
      "inputs": [],
      "name": "PAUSER_ROLE",
      "outputs": [
        {
          "internalType": "bytes32",
          "name": "",
          "type": "bytes32"
        }
      ],
      "stateMutability": "view",
      "type": "function"
    },
    {
      "inputs": [],
      "name": "REPAYER_ROLE",
      "outputs": [
        {
          "internalType": "bytes32",
          "name": "",
          "type": "bytes32"
        }
      ],
      "stateMutability": "view",
      "type": "function"
    },
    {
      "inputs": [
        {
          "internalType": "uint256",
          "name": "amount",
          "type": "uint256"
        }
      ],
      "name": "borrow",
      "outputs": [],
      "stateMutability": "nonpayable",
      "type": "function"
    },
    {
      "inputs": [
        {
          "internalType": "address",
          "name": "to",
          "type": "address"
        }
      ],
      "name": "claim",
      "outputs": [],
      "stateMutability": "nonpayable",
      "type": "function"
    },
    {
      "inputs": [
        {
          "internalType": "uint128",
          "name": "amount",
          "type": "uint128"
        },
        {
          "internalType": "bytes32[]",
          "name": "permission",
          "type": "bytes32[]"
        }
      ],
      "name": "deposit",
      "outputs": [],
      "stateMutability": "nonpayable",
      "type": "function"
    },
    {
      "inputs": [
        {
          "internalType": "address",
          "name": "user",
          "type": "address"
        }
      ],
      "name": "getPendingRewards",
      "outputs": [
        {
          "internalType": "uint256",
          "name": "",
          "type": "uint256"
        }
      ],
      "stateMutability": "view",
      "type": "function"
    },
    {
      "inputs": [
        {
          "internalType": "address",
          "name": "liquidityProvider",
          "type": "address"
        }
      ],
      "name": "getPositionInfo",
      "outputs": [
        {
          "internalType": "uint256",
          "name": "",
          "type": "uint256"
        }
      ],
      "stateMutability": "view",
      "type": "function"
    },
    {
      "inputs": [
        {
          "internalType": "bytes32",
          "name": "role",
          "type": "bytes32"
        }
      ],
      "name": "getRoleAdmin",
      "outputs": [
        {
          "internalType": "bytes32",
          "name": "",
          "type": "bytes32"
        }
      ],
      "stateMutability": "view",
      "type": "function"
    },
    {
      "inputs": [
        {
          "internalType": "bytes32",
          "name": "role",
          "type": "bytes32"
        },
        {
          "internalType": "address",
          "name": "account",
          "type": "address"
        }
      ],
      "name": "grantRole",
      "outputs": [],
      "stateMutability": "nonpayable",
      "type": "function"
    },
    {
      "inputs": [
        {
          "internalType": "bytes32",
          "name": "role",
          "type": "bytes32"
        },
        {
          "internalType": "address",
          "name": "account",
          "type": "address"
        }
      ],
      "name": "hasRole",
      "outputs": [
        {
          "internalType": "bool",
          "name": "",
          "type": "bool"
        }
      ],
      "stateMutability": "view",
      "type": "function"
    },
    {
      "inputs": [
        {
          "internalType": "address",
          "name": "borrower",
          "type": "address"
        },
        {
          "internalType": "address",
          "name": "repayer",
          "type": "address"
        },
        {
          "internalType": "address",
          "name": "token_",
          "type": "address"
        },
        {
          "internalType": "uint256",
          "name": "_thresholdOnTotalDeposit",
          "type": "uint256"
        }
      ],
      "name": "initialize",
      "outputs": [],
      "stateMutability": "nonpayable",
      "type": "function"
    },
    {
      "inputs": [],
      "name": "isSuspended",
      "outputs": [
        {
          "internalType": "bool",
          "name": "",
          "type": "bool"
        }
      ],
      "stateMutability": "view",
      "type": "function"
    },
    {
      "inputs": [],
      "name": "paused",
      "outputs": [
        {
          "internalType": "bool",
          "name": "",
          "type": "bool"
        }
      ],
      "stateMutability": "view",
      "type": "function"
    },
    {
      "inputs": [
        {
          "internalType": "bytes32",
          "name": "role",
          "type": "bytes32"
        },
        {
          "internalType": "address",
          "name": "account",
          "type": "address"
        }
      ],
      "name": "renounceRole",
      "outputs": [],
      "stateMutability": "nonpayable",
      "type": "function"
    },
    {
      "inputs": [
        {
          "internalType": "uint256",
          "name": "amount",
          "type": "uint256"
        },
        {
          "internalType": "uint256",
          "name": "rewards",
          "type": "uint256"
        }
      ],
      "name": "returnAndDistribute",
      "outputs": [],
      "stateMutability": "nonpayable",
      "type": "function"
    },
    {
      "inputs": [
        {
          "internalType": "bytes32",
          "name": "role",
          "type": "bytes32"
        },
        {
          "internalType": "address",
          "name": "account",
          "type": "address"
        }
      ],
      "name": "revokeRole",
      "outputs": [],
      "stateMutability": "nonpayable",
      "type": "function"
    },
    {
      "inputs": [
        {
          "internalType": "bytes4",
          "name": "interfaceId",
          "type": "bytes4"
        }
      ],
      "name": "supportsInterface",
      "outputs": [
        {
          "internalType": "bool",
          "name": "",
          "type": "bool"
        }
      ],
      "stateMutability": "view",
      "type": "function"
    },
    {
      "inputs": [],
      "name": "suspend",
      "outputs": [],
      "stateMutability": "nonpayable",
      "type": "function"
    },
    {
      "inputs": [],
      "name": "token",
      "outputs": [
        {
          "internalType": "address",
          "name": "",
          "type": "address"
        }
      ],
      "stateMutability": "view",
      "type": "function"
    },
    {
      "inputs": [],
      "name": "unsuspend",
      "outputs": [],
      "stateMutability": "nonpayable",
      "type": "function"
    },
    {
      "inputs": [
        {
          "internalType": "uint128",
          "name": "amount",
          "type": "uint128"
        },
        {
          "internalType": "address",
          "name": "to",
          "type": "address"
        }
      ],
      "name": "withdraw",
      "outputs": [],
      "stateMutability": "nonpayable",
      "type": "function"
    }
  ],
  "bytecode": "0x6080806040523461001657613332908161001c8239f35b600080fdfe608060408181526004918236101561001657600080fd5b600092833560e01c91826301ffc9a714611b77575081630e7b949e14611b1e5781631d130935146111535781631d9b0783146119755781631e83409a146118c6578163248a9ca31461187d5781632f2ff15d1461178957816336568abe146116a4578163413a0f4b1461128a5781635c58ce87146111955781635c975abb1461115357816391d14854146110e2578163a217fddf146110a9578163b60f86de14610e8a578163c5ebeaec14610a86578163cf756fdf14610631578163d547741f146105d0578163e268474714610577578163e63ab1e91461051e578163e6400bbe14610487578163f6ed2017146101ea57508063fbd1d25a146101775763fc0c546a1461012257600080fd5b3461017357817ffffffffffffffffffffffffffffffffffffffffffffffffffffffffffffffffc3601126101735760209073ffffffffffffffffffffffffffffffffffffffff60d254169051908152f35b5080fd5b50346101735760207ffffffffffffffffffffffffffffffffffffffffffffffffffffffffffffffffc360112610173576fffffffffffffffffffffffffffffffff8160209373ffffffffffffffffffffffffffffffffffffffff6101d9611c7a565b16815260cc85522054169051908152f35b82843461048457602092837ffffffffffffffffffffffffffffffffffffffffffffffffffffffffffffffffc36011261017357610225611c7a565b916102508373ffffffffffffffffffffffffffffffffffffffff1660005260cc602052604060002090565b5460801c9273ffffffffffffffffffffffffffffffffffffffff81169081835260cc87526001868420015460101c835260cd875285832054610296575b86858751908152f35b6103069082845260cc885277ffffffffffffffffffffffffffffffffffffffffffffffff610300888620600181016102dd8c60cd835460101c91828c52528c8a2054612ec0565b94600289930154914267ffffffffffffffff841603610470575b50508a1c612ecd565b16612228565b91809382825260cc8852600187832001548060101c835260cd8952878320549081845260ce8a528884205460c95461ffff928380831691168461034882612ef9565b168211610392575b505050505050505050670de0b6b3a764000061038161038994936fffffffffffffffffffffffffffffffff9361226a565b04169061226a565b8380808061028d565b8495969798999a506103a8909491929394612ef9565b16900394838611610444575089670de0b6b3a7640000966104278d6104226103819961041c6103899f9e9a6104379a6fffffffffffffffffffffffffffffffff9f9a6fffffffffffffffffffffffffffffffff9a9060ce6104149260101c98898c52528a8a2054612ec0565b931694612ec0565b90612228565b612e87565b93815260cc8d5220541690612228565b949581948a808080610350565b8660116024927f4e487b7100000000000000000000000000000000000000000000000000000000835252fd5b61047b929350612f0c565b50908c806102f7565b80fd5b50503461017357817ffffffffffffffffffffffffffffffffffffffffffffffffffffffffffffffffc3601126101735760207f62e78cea01bee320cd4e420270b5ea74000d11b0c9f74754ebdbfc544b05a258916104e3611c9d565b6104eb61243d565b60017fffffffffffffffffffffffffffffffffffffffffffffffffffffffffffffff00609754161760975551338152a180f35b50503461017357817ffffffffffffffffffffffffffffffffffffffffffffffffffffffffffffffffc36011261017357602090517f65d7a28e3265b37a6474929f336521b332c1681b933f6cb9f3376673440d862a8152f35b50503461017357817ffffffffffffffffffffffffffffffffffffffffffffffffffffffffffffffffc36011261017357602090517f9c60024347074fd9de2c1e36003080d22dbc76a41ef87444d21e361bcb39118e8152f35b9190503461062d57807ffffffffffffffffffffffffffffffffffffffffffffffffffffffffffffffffc36011261062d5761062a91356106256001610613611c57565b93838752606560205286200154611f36565b612186565b80f35b8280fd5b90503461062d5760807ffffffffffffffffffffffffffffffffffffffffffffffffffffffffffffffffc36011261062d5761066a611c7a565b90610673611c57565b9060443573ffffffffffffffffffffffffffffffffffffffff808216809203610a825786549360ff94858160081c161594858096610a76575b8015610a60575b156109dd57506001957fffffffffffffffffffffffffffffffffffffffffffffffffffffffffffffff00918688848316178c556109af575b50610716818b5460081c166106ff816124a7565b610708816124a7565b610711816124a7565b6124a7565b81609754166097558980526065908a602099838b528b82203383528b52828c832054161561096a575b7f65d7a28e3265b37a6474929f336521b332c1681b933f6cb9f3376673440d862a808352848c528c83203384528c52838d8420541615610923575b507f2344277e405079ec07749d374ba0b5862a4e45a6a05ac889dbb4a991c6f9354d808352848c52878d84209216918284528c52838d84205416156108dd575b5050507f9c60024347074fd9de2c1e36003080d22dbc76a41ef87444d21e361bcb39118e94858c52828a528a8c20941693848c528952898b20541615610896575b5050505060643560d1557fffffffffffffffffffffffff0000000000000000000000000000000000000000908160d254161760d255339060d354161760d355610842578380f35b7f7f26b83ff96e1f2b6a682f133852f6798a09c465da95921460cefb3847402498927fffffffffffffffffffffffffffffffffffffffffffffffffffffffffffff00ff855416855551908152a13880808380f35b838a528752878920828a52875285888a209182541617905533917f2f8788117e7eff1d82e926ec794901d17c78024a50270940304540a733656f0d8980a4388080806107fb565b808352848c528c83208284528c528c83208b878254161790557f2f8788117e7eff1d82e926ec794901d17c78024a50270940304540a733656f0d339380a48a38806107ba565b808352848c528c83203384528c528c83208b87825416179055339033907f2f8788117e7eff1d82e926ec794901d17c78024a50270940304540a733656f0d8580a43861077a565b818052838b528b82203383528b528b82208a868254161790553333837f2f8788117e7eff1d82e926ec794901d17c78024a50270940304540a733656f0d8180a461073f565b7fffffffffffffffffffffffffffffffffffffffffffffffffffffffffffff000016610101178a55386106eb565b60849060208a51917f08c379a0000000000000000000000000000000000000000000000000000000008352820152602e60248201527f496e697469616c697a61626c653a20636f6e747261637420697320616c72656160448201527f647920696e697469616c697a65640000000000000000000000000000000000006064820152fd5b50303b1580156106b357506001878316146106b3565b506001878316106106ac565b8680fd5b83833461017357602090817ffffffffffffffffffffffffffffffffffffffffffffffffffffffffffffffffc36011261062d578335907f2344277e405079ec07749d374ba0b5862a4e45a6a05ac889dbb4a991c6f9354d80855260658452818520338652845260ff828620541615610bf3575073ffffffffffffffffffffffffffffffffffffffff60d254169481517f70a08231000000000000000000000000000000000000000000000000000000008152308282015284816024818a5afa908115610be9578691610bb8575b508311610b915750610b89827f69c0ed5a77051ba5f0c42418bb6db6d3f73884dea69811c50bf320298df6ca5c9596339061302b565b51908152a180f35b90517f0acd1c12000000000000000000000000000000000000000000000000000000008152fd5b90508481813d8311610be2575b610bcf81836120fb565b81010312610bde575187610b53565b8580fd5b503d610bc5565b83513d88823e3d90fd5b83858792610c00336122b7565b855191610c0c836120df565b60428352848301936060368637835115610e5e5760308553835190600191821015610e325790607860218601536041915b818311610d6a57505050610d0e57610d0a938693610cdc93610ccd604894610c989a519a857f416363657373436f6e74726f6c3a206163636f756e74200000000000000000008d978801528251928391603789019101612071565b8401917f206973206d697373696e6720726f6c6520000000000000000000000000000000603784015251809386840190612071565b010360288101875201856120fb565b519283927f08c379a0000000000000000000000000000000000000000000000000000000008452830161213c565b0390fd5b5050508060649351927f08c379a000000000000000000000000000000000000000000000000000000000845283015260248201527f537472696e67733a20686578206c656e67746820696e73756666696369656e746044820152fd5b909192600f81166010811015610e06577f3031323334353637383961626364656600000000000000000000000000000000901a610da78588612277565b53881c928015610dda577fffffffffffffffffffffffffffffffffffffffffffffffffffffffffffffffff019190610c3d565b60248260118b7f4e487b7100000000000000000000000000000000000000000000000000000000835252fd5b60248360328c7f4e487b7100000000000000000000000000000000000000000000000000000000835252fd5b806032897f4e487b71000000000000000000000000000000000000000000000000000000006024945252fd5b806032887f4e487b71000000000000000000000000000000000000000000000000000000006024945252fd5b9190503461062d57807ffffffffffffffffffffffffffffffffffffffffffffffffffffffffffffffffc36011261062d57610ec3611c33565b9160243567ffffffffffffffff808211610bde5736602383011215610bde5781830135908111610bde573660248260051b84010111610bde578290610f0661243d565b73ffffffffffffffffffffffffffffffffffffffff9260208460d354168751948580927f5ca1e1650000000000000000000000000000000000000000000000000000000082525afa91821561109f578892611066575b610f6b9350602433920161281f565b60d25416926fffffffffffffffffffffffffffffffff91610f93838316809630903390612532565b60d154610fa260ca548761226a565b1161103f5750610fb1336128ec565b7fffffffffffffffffffffffffffffffff00000000000000000000000000000000610ffc3373ffffffffffffffffffffffffffffffffffffffff1660005260cc602052604060002090565b92835492818416011691161790558160ca540160ca55519081527f2da466a7b24304f47e87fa2e1e5a81b9831ce54fec19055ce277ca2f39ba42c460203392a280f35b83517fc4c6ecd9000000000000000000000000000000000000000000000000000000008152fd5b91506020833d8211611097575b81611080602093836120fb565b8101031261109357610f6b925191610f5c565b8780fd5b3d9150611073565b86513d8a823e3d90fd5b50503461017357817ffffffffffffffffffffffffffffffffffffffffffffffffffffffffffffffffc3601126101735751908152602090f35b90503461062d57817ffffffffffffffffffffffffffffffffffffffffffffffffffffffffffffffffc36011261062d578160209360ff92611121611c57565b903582526065865273ffffffffffffffffffffffffffffffffffffffff83832091168252855220541690519015158152f35b50503461017357817ffffffffffffffffffffffffffffffffffffffffffffffffffffffffffffffffc3601126101735760209060ff6097541690519015158152f35b90503461062d57827ffffffffffffffffffffffffffffffffffffffffffffffffffffffffffffffffc36011261062d576111cd611c9d565b6097549060ff82161561122d57507f5db9ee0a495bf2e6ff9c91a7834c1ba4fdd244a5e8aa4e537bd38aeae4b073aa917fffffffffffffffffffffffffffffffffffffffffffffffffffffffffffffff006020921660975551338152a180f35b60649060208451917f08c379a0000000000000000000000000000000000000000000000000000000008352820152601460248201527f5061757361626c653a206e6f74207061757365640000000000000000000000006044820152fd5b83833461017357807ffffffffffffffffffffffffffffffffffffffffffffffffffffffffffffffffc36011261017357823592602491823573ffffffffffffffffffffffffffffffffffffffff916112f48360d254166112ea848a61226a565b9030903390612532565b8260d254169181519261130684612094565b8352602090818401968988525b60d05460cf8054906113258284612ec0565b15158061169a575b156114615761133b8261309e565b50916001809301548c51106000146113895750611381925061135d905461309e565b509061136f8b51918301918254612ec0565b905587808851169154168a519161302b565b888852611313565b91928261139591612ec0565b15611439577fffffffffffffffffffffffffffffffffffffffffffffffffffffffffffffffff821461140e576113d7826113ff9285611407969501905561309e565b5091868851916113e683612094565b8b8554169485845201549101928184528a8a511661302b565b518951612ec0565b8852611313565b838c60118c7f4e487b7100000000000000000000000000000000000000000000000000000000835252fd5b8987517f63c36549000000000000000000000000000000000000000000000000000000008152fd5b898c888f888a89857fffffffffffffffffffffffffffffffffffffffffffffffff00000000000000006114ac60cb549267ffffffffffffffff9384811680611661575b50891c612ecd565b871b16814216178060cb55861c80156116395760c954918260101c670de0b6b3a764000080880290888204148815171561160e5761150a7dffffffffffffffffffffffffffffffffffffffffffffffffffffffffffff948592612e87565b1681019283116115e3577fffffffffffffffffffffffffffffffffffffffffffffffffffffffffffff000093849361ffff94859160101b16911617908160c9558a5260cd865260101c888a205560cb541660cb5560c95460101c885260ce8452428789205560c9549281841699828b146115b957505060017f734c0a295ca078fe3a51bc8053ef5c526c1cf299e96d3350fb54422c82b3790d9899011691161760c9558351928352820152a180f35b60118a917f4e487b7100000000000000000000000000000000000000000000000000000000835252fd5b848a60118d7f4e487b7100000000000000000000000000000000000000000000000000000000835252fd5b858b60118e7f4e487b7100000000000000000000000000000000000000000000000000000000835252fd5b8887517f3a44909f000000000000000000000000000000000000000000000000000000008152fd5b77ffffffffffffffffffffffffffffffffffffffffffffffff91925061168a6116929142612ec0565b60ca54612228565b16908c6114a4565b508a51151561132d565b8391503461017357827ffffffffffffffffffffffffffffffffffffffffffffffffffffffffffffffffc360112610173576116dd611c57565b903373ffffffffffffffffffffffffffffffffffffffff831603611706579061062a9135612186565b60849060208551917f08c379a0000000000000000000000000000000000000000000000000000000008352820152602f60248201527f416363657373436f6e74726f6c3a2063616e206f6e6c792072656e6f756e636560448201527f20726f6c657320666f722073656c6600000000000000000000000000000000006064820152fd5b90503461062d57817ffffffffffffffffffffffffffffffffffffffffffffffffffffffffffffffffc36011261062d5735906117c3611c57565b9082845260656020526117db60018286200154611f36565b828452606560205273ffffffffffffffffffffffffffffffffffffffff81852092169182855260205260ff818520541615611814578380f35b8284526065602052808420828552602052832060017fffffffffffffffffffffffffffffffffffffffffffffffffffffffffffffff0082541617905533917f2f8788117e7eff1d82e926ec794901d17c78024a50270940304540a733656f0d8480a43880808380f35b90503461062d5760207ffffffffffffffffffffffffffffffffffffffffffffffffffffffffffffffffc36011261062d5781602093600192358152606585522001549051908152f35b8383346101735760207ffffffffffffffffffffffffffffffffffffffffffffffffffffffffffffffffc360112610173576118ff611c7a565b73ffffffffffffffffffffffffffffffffffffffff8082161561196d575b61192e61192933613235565b6130d8565b928315611945575061062a93945060d2541661302b565b8590517fb71ea17e000000000000000000000000000000000000000000000000000000008152fd5b33915061191d565b9190503461062d57807ffffffffffffffffffffffffffffffffffffffffffffffffffffffffffffffffc36011261062d576119ae611c33565b906119b7611c57565b9073ffffffffffffffffffffffffffffffffffffffff9283831615611b16575b6fffffffffffffffffffffffffffffffff9081611a143373ffffffffffffffffffffffffffffffffffffffff1660005260cc602052604060002090565b541695828216968711611aef575091602093917f7084f5476618d8e60b11ef0d7d3f06914655adb8793e28ff7f018d4c76d505d59593611a53336128ec565b7fffffffffffffffffffffffffffffffff00000000000000000000000000000000611a9e3373ffffffffffffffffffffffffffffffffffffffff1660005260cc602052604060002090565b92835492818416031691161790558560ca540360ca55611ac9611929611ac333613235565b8861226a565b80611ada575b50519485521692a280f35b611ae990838560d2541661302b565b38611acf565b83517f5284b85f000000000000000000000000000000000000000000000000000000008152fd5b3392506119d7565b50503461017357817ffffffffffffffffffffffffffffffffffffffffffffffffffffffffffffffffc36011261017357602090517f2344277e405079ec07749d374ba0b5862a4e45a6a05ac889dbb4a991c6f9354d8152f35b84913461062d5760207ffffffffffffffffffffffffffffffffffffffffffffffffffffffffffffffffc36011261062d57357fffffffff00000000000000000000000000000000000000000000000000000000811680910361062d57602092507f7965db0b000000000000000000000000000000000000000000000000000000008114908115611c09575b5015158152f35b7f01ffc9a70000000000000000000000000000000000000000000000000000000091501483611c02565b600435906fffffffffffffffffffffffffffffffff82168203611c5257565b600080fd5b6024359073ffffffffffffffffffffffffffffffffffffffff82168203611c5257565b6004359073ffffffffffffffffffffffffffffffffffffffff82168203611c5257565b3360009081527fbfe93621c6aa2dbf737e9056c9b79e4d30ee4f6b28b18be2cb71aac8a7bf258e60209081526040808320549092907f65d7a28e3265b37a6474929f336521b332c1681b933f6cb9f3376673440d862a9060ff1615611d025750505050565b611d0b336122b7565b845191611d17836120df565b60428352848301936060368637835115611f095760308553835190600191821015611f095790607860218601536041915b818311611e3e57505050611de257610c98938593611db293611da3604894610d0a995198857f416363657373436f6e74726f6c3a206163636f756e74200000000000000000008b978801528251928391603789019101612071565b010360288101855201836120fb565b519182917f08c379a00000000000000000000000000000000000000000000000000000000083526004830161213c565b6064848651907f08c379a000000000000000000000000000000000000000000000000000000000825280600483015260248201527f537472696e67733a20686578206c656e67746820696e73756666696369656e746044820152fd5b909192600f81166010811015611edc577f3031323334353637383961626364656600000000000000000000000000000000901a611e7b8588612277565b5360041c928015611eaf577fffffffffffffffffffffffffffffffffffffffffffffffffffffffffffffffff019190611d48565b6024827f4e487b710000000000000000000000000000000000000000000000000000000081526011600452fd5b6024837f4e487b710000000000000000000000000000000000000000000000000000000081526032600452fd5b807f4e487b7100000000000000000000000000000000000000000000000000000000602492526032600452fd5b600081815260209060658252604092838220338352835260ff848320541615611f5f5750505050565b611f68336122b7565b845191611f74836120df565b60428352848301936060368637835115611f095760308553835190600191821015611f095790607860218601536041915b81831161200057505050611de257610c98938593611db293611da3604894610d0a995198857f416363657373436f6e74726f6c3a206163636f756e74200000000000000000008b978801528251928391603789019101612071565b909192600f81166010811015611edc577f3031323334353637383961626364656600000000000000000000000000000000901a61203d8588612277565b5360041c928015611eaf577fffffffffffffffffffffffffffffffffffffffffffffffffffffffffffffffff019190611fa5565b60005b8381106120845750506000910152565b8181015183820152602001612074565b6040810190811067ffffffffffffffff8211176120b057604052565b7f4e487b7100000000000000000000000000000000000000000000000000000000600052604160045260246000fd5b6080810190811067ffffffffffffffff8211176120b057604052565b90601f7fffffffffffffffffffffffffffffffffffffffffffffffffffffffffffffffe0910116810190811067ffffffffffffffff8211176120b057604052565b7fffffffffffffffffffffffffffffffffffffffffffffffffffffffffffffffe0601f6040936020845261217f8151809281602088015260208888019101612071565b0116010190565b90600091808352606560205273ffffffffffffffffffffffffffffffffffffffff6040842092169182845260205260ff6040842054166121c557505050565b808352606560205260408320828452602052604083207fffffffffffffffffffffffffffffffffffffffffffffffffffffffffffffff0081541690557ff6391f5c32d9c69d2a47ea670b442974b53935d1edc7fd64eb21e047a839171b339380a4565b8181029291811591840414171561223b57565b7f4e487b7100000000000000000000000000000000000000000000000000000000600052601160045260246000fd5b9190820180921161223b57565b908151811015612288570160200190565b7f4e487b7100000000000000000000000000000000000000000000000000000000600052603260045260246000fd5b604051906060820182811067ffffffffffffffff8211176120b057604052602a82526020820160403682378251156122885760309053815160019081101561228857607860218401536029905b8082116123725750506123145790565b60646040517f08c379a000000000000000000000000000000000000000000000000000000000815260206004820152602060248201527f537472696e67733a20686578206c656e67746820696e73756666696369656e746044820152fd5b9091600f8116601081101561240f577f3031323334353637383961626364656600000000000000000000000000000000901a6123ae8486612277565b5360041c9180156123e1577fffffffffffffffffffffffffffffffffffffffffffffffffffffffffffffffff0190612304565b602460007f4e487b710000000000000000000000000000000000000000000000000000000081526011600452fd5b602460007f4e487b710000000000000000000000000000000000000000000000000000000081526032600452fd5b60ff6097541661244957565b60646040517f08c379a000000000000000000000000000000000000000000000000000000000815260206004820152601060248201527f5061757361626c653a20706175736564000000000000000000000000000000006044820152fd5b156124ae57565b60846040517f08c379a000000000000000000000000000000000000000000000000000000000815260206004820152602b60248201527f496e697469616c697a61626c653a20636f6e7472616374206973206e6f74206960448201527f6e697469616c697a696e670000000000000000000000000000000000000000006064820152fd5b9290604051927f23b872dd00000000000000000000000000000000000000000000000000000000602085015273ffffffffffffffffffffffffffffffffffffffff809216602485015216604483015260648201526064815260a081019181831067ffffffffffffffff8411176120b0576125ae926040526125b0565b565b73ffffffffffffffffffffffffffffffffffffffff16906040516125d381612094565b6020928382527f5361666545524332303a206c6f772d6c6576656c2063616c6c206661696c6564848301526000808486829651910182855af13d15612751573d9167ffffffffffffffff8311612724579061266c9392916040519261265f887fffffffffffffffffffffffffffffffffffffffffffffffffffffffffffffffe0601f84011601856120fb565b83523d868885013e61275b565b80518061267a575b50505050565b81849181010312610173578201519081159182150361048457506126a057808080612674565b608490604051907f08c379a00000000000000000000000000000000000000000000000000000000082526004820152602a60248201527f5361666545524332303a204552433230206f7065726174696f6e20646964206e60448201527f6f742073756363656564000000000000000000000000000000000000000000006064820152fd5b6024857f4e487b710000000000000000000000000000000000000000000000000000000081526041600452fd5b9061266c92916060915b919290156127d6575081511561276f575090565b3b156127785790565b60646040517f08c379a000000000000000000000000000000000000000000000000000000000815260206004820152601d60248201527f416464726573733a2063616c6c20746f206e6f6e2d636f6e74726163740000006044820152fd5b8251909150156127e95750805190602001fd5b610d0a906040519182917f08c379a00000000000000000000000000000000000000000000000000000000083526004830161213c565b9291927fffffffffffffffffffffffffffffffffffffffffffffffffffffffffffffffff8314612674576040938285519160209273ffffffffffffffffffffffffffffffffffffffff8482019216825283815261287b81612094565b519020936128b8575b5050500361288f5750565b600490517f8eac9a6e000000000000000000000000000000000000000000000000000000008152fd5b600590811b830192935b82853591828111841b908152185281866000209401938385106128c2579350505050388080612884565b60009060cb5461293767ffffffffffffffff9384831680612e58575b507fffffffffffffffffffffffffffffffffffffffffffffffff0000000000000000918291604094851c612ecd565b831b1684421680911760cb5573ffffffffffffffffffffffffffffffffffffffff8416948560005260cc92602092848452856000208360026129ca61299161298360019c8d8701612f0c565b939095019485548c1c612ecd565b845467ffffffffffffffff1660409190911b7fffffffffffffffffffffffffffffffffffffffffffffffff000000000000000016178455565b16838254161790558760005284845285600020908782015460101c60005260cd8552866000205460005260ce855287846002896000205494015416928a60005287875288600020906fffffffffffffffffffffffffffffffff9485835416159182612e4e575b508115612e45575b50612e00575b015460101c60005260cd85528660002054612a94575b5050505060c9549460005252600020019061ffff7fffffffffffffffffffffffffffffffffffffffffffffffffffffffffffff0000835492169116179055565b88600052858552866000209388850154908a8260101c928360005260cd8952612ac1848c60002054612ec0565b938b600260009a015494851691428303612d2d575b505050505090612b069161030077ffffffffffffffffffffffffffffffffffffffffffffffff9788928c1c612ecd565b928260008b81528888528a8a82200154958660101c825260cd89528a82205480835260ce8a528b8320549060c9549061ffff998a80808516921681612b4a82612ef9565b168311612c8d575b505050505050670de0b6b3a764000091612b6b9161226a565b0416928a6000528787528860002090815496858860801c0182811161223b578d8d978c958c9b8f947fffffffffffffffffffffffffffffffff00000000000000000000000000000000889160801b169116179055612bcf575b505050505050612a54565b61041c600294612c0f9387612c4d988e8660005252816000209b8c019d60c95460101c60005260ce81528260002054956000525260002054169142612ec0565b16940193849067ffffffffffffffff7fffffffffffffffffffffffffffffffffffffffffffffffff000000000000000083549260401b169116179055565b82541617905560c954167fffffffffffffffffffffffffffffffffffffffffffffffffffffffffffff000082541617905580388581808681808a8d612bc4565b612c9d9192939495969850612ef9565b16900391898311612d00578f908e670de0b6b3a7640000968f8f612ce88f998f9c996104229061041c8f999b612b6b9e610414612cf59e60101c96878c5260ce8a528c8c2054612ec0565b9583525220541690612228565b928192388a81612b52565b6024857f4e487b710000000000000000000000000000000000000000000000000000000081526011600452fd5b99612b0696959a819582528d8d528983832054169461ffff8060c9541691161480612df7575b15612d945750505077ffffffffffffffffffffffffffffffffffffffffffffffff92509061041c612d849242612ec0565b165b959091508a38808b81612ad6565b815260cd8c5281812054815260ce8c52205480821080612dee575b612dbc575b505050612d86565b77ffffffffffffffffffffffffffffffffffffffffffffffff9350612de5929161041c91612ec0565b16388080612db4565b50821515612daf565b50831515612d53565b828282016002830190828883541617825561ffff60c954167fffffffffffffffffffffffffffffffffffffffffffffffffffffffffffff000082541617905555612a3e565b90501538612a38565b8114915038612a30565b77ffffffffffffffffffffffffffffffffffffffffffffffff915061168a612e809142612ec0565b1638612908565b8115612e91570490565b7f4e487b7100000000000000000000000000000000000000000000000000000000600052601260045260246000fd5b9190820391821161223b57565b91909177ffffffffffffffffffffffffffffffffffffffffffffffff8080941691160191821161223b57565b90600161ffff8093160191821161223b57565b9190916000926000938467ffffffffffffffff9573ffffffffffffffffffffffffffffffffffffffff876001870154169416815260cc6020526fffffffffffffffffffffffffffffffff6040822054169461ffff908160c9541690549182161480613022575b15612fa9575050505077ffffffffffffffffffffffffffffffffffffffffffffffff9161041c612fa29242612ec0565b1691421690565b906040916010989498979693971c815260cd60205281812054815260ce60205220549283811080613019575b612fdf5750505050565b83965061300c9294955061041c9077ffffffffffffffffffffffffffffffffffffffffffffffff94612ec0565b1692169038808080612674565b50811515612fd5565b50841515612f72565b9173ffffffffffffffffffffffffffffffffffffffff604051927fa9059cbb000000000000000000000000000000000000000000000000000000006020850152166024830152604482015260448152608081019181831067ffffffffffffffff8411176120b0576125ae926040526125b0565b60d0548110156122885760d060005260011b7fe89d44c8fd6a9bac8af33ce47f56337617d449bf7ff3956b618c646de829cbcb0190600090565b60249073ffffffffffffffffffffffffffffffffffffffff9060208260d25416604051948580927f70a082310000000000000000000000000000000000000000000000000000000082523060048301525afa928315613229576000936131f6575b50808310156131f0578261314c91612ec0565b6040519061315982612094565b3382526020820190815260d054680100000000000000008110156120b057806001613187920160d05561309e565b9390936131c15760019251167fffffffffffffffffffffffff00000000000000000000000000000000000000008454161783555191015590565b7f4e487b7100000000000000000000000000000000000000000000000000000000600052600060045260246000fd5b91505090565b90926020823d8211613221575b81613210602093836120fb565b810103126104845750519138613139565b3d9150613203565b6040513d6000823e3d90fd5b9061323f826128ec565b6132698273ffffffffffffffffffffffffffffffffffffffff1660005260cc602052604060002090565b5460801c6132978373ffffffffffffffffffffffffffffffffffffffff1660005260cc602052604060002090565b6fffffffffffffffffffffffffffffffff81541690558092816132b8575050565b602073ffffffffffffffffffffffffffffffffffffffff7fd8138f8a3f377c5259ca548e70e4c2de94f129f5a11036a15b69513cba2b426a926040519485521692a256fea26469706673582212200f6d7f9fc121cbd7e53d3b3906ad52011f889b3b2dd79ee082d638a1439cd37264736f6c63430008130033",
  "linkReferences": {},
  "deployedLinkReferences": {}
}