{
  "_format": "hh-sol-artifact-1",
  "contractName": "MarginAccountFactory",
  "sourceName": "contracts/portfolioAdministration/marginAccount/MarginAccountFactory.sol",
  "abi": [
    {
      "inputs": [
        {
          "internalType": "address",
          "name": "_validationHub",
          "type": "address"
        },
        {
          "internalType": "address",
          "name": "_orderAssemblySystem",
          "type": "address"
        },
        {
          "internalType": "address",
          "name": "_allowedSigner",
          "type": "address"
        },
        {
          "internalType": "string",
          "name": "_chainName",
          "type": "string"
        }
      ],
      "stateMutability": "nonpayable",
      "type": "constructor"
    },
    {
      "inputs": [],
      "name": "AddressDoesNotContainCode",
      "type": "error"
    },
    {
      "inputs": [],
      "name": "AlreadyUpToDate",
      "type": "error"
    },
    {
      "inputs": [
        {
          "internalType": "address",
          "name": "token",
          "type": "address"
        }
      ],
      "name": "AmountMustNotBeZero",
      "type": "error"
    },
    {
      "inputs": [],
      "name": "ArrayMustNotBeEmpty",
      "type": "error"
    },
    {
      "inputs": [],
      "name": "CrossChainActionIsForbidden",
      "type": "error"
    },
    {
      "inputs": [
        {
          "internalType": "address",
          "name": "expected",
          "type": "address"
        },
        {
          "internalType": "address",
          "name": "supplied",
          "type": "address"
        }
      ],
      "name": "InvalidLeverageSupplied",
      "type": "error"
    },
    {
      "inputs": [
        {
          "internalType": "uint256",
          "name": "index",
          "type": "uint256"
        }
      ],
      "name": "InvalidSequenceAtIndex",
      "type": "error"
    },
    {
      "inputs": [],
      "name": "MarginAccountImplementationNotFound",
      "type": "error"
    },
    {
      "inputs": [],
      "name": "MarginAccountsPoolIsEmpty",
      "type": "error"
    },
    {
      "inputs": [
        {
          "internalType": "uint256",
          "name": "",
          "type": "uint256"
        }
      ],
      "name": "NonceAlreadyUsed",
      "type": "error"
    },
    {
      "inputs": [
        {
          "internalType": "FixedU256x32",
          "name": "",
          "type": "uint256"
        }
      ],
      "name": "RiskFactorIsTooLow",
      "type": "error"
    },
    {
      "inputs": [],
      "name": "SignatureExpired",
      "type": "error"
    },
    {
      "inputs": [
        {
          "internalType": "address",
          "name": "",
          "type": "address"
        }
      ],
      "name": "SignerIsNotAllowed",
      "type": "error"
    },
    {
      "inputs": [
        {
          "internalType": "address",
          "name": "",
          "type": "address"
        }
      ],
      "name": "UnauthorizedAccount",
      "type": "error"
    },
    {
      "anonymous": false,
      "inputs": [
        {
          "indexed": true,
          "internalType": "address",
          "name": "account",
          "type": "address"
        }
      ],
      "name": "AccountBorrowed",
      "type": "event"
    },
    {
      "anonymous": false,
      "inputs": [
        {
          "indexed": true,
          "internalType": "address",
          "name": "account",
          "type": "address"
        }
      ],
      "name": "AccountDeployed",
      "type": "event"
    },
    {
      "anonymous": false,
      "inputs": [
        {
          "indexed": true,
          "internalType": "address",
          "name": "account",
          "type": "address"
        }
      ],
      "name": "AccountReturned",
      "type": "event"
    },
    {
      "anonymous": false,
      "inputs": [
        {
          "indexed": true,
          "internalType": "bytes32",
          "name": "role",
          "type": "bytes32"
        },
        {
          "indexed": true,
          "internalType": "bytes32",
          "name": "previousAdminRole",
          "type": "bytes32"
        },
        {
          "indexed": true,
          "internalType": "bytes32",
          "name": "newAdminRole",
          "type": "bytes32"
        }
      ],
      "name": "RoleAdminChanged",
      "type": "event"
    },
    {
      "anonymous": false,
      "inputs": [
        {
          "indexed": true,
          "internalType": "bytes32",
          "name": "role",
          "type": "bytes32"
        },
        {
          "indexed": true,
          "internalType": "address",
          "name": "account",
          "type": "address"
        },
        {
          "indexed": true,
          "internalType": "address",
          "name": "sender",
          "type": "address"
        }
      ],
      "name": "RoleGranted",
      "type": "event"
    },
    {
      "anonymous": false,
      "inputs": [
        {
          "indexed": true,
          "internalType": "bytes32",
          "name": "role",
          "type": "bytes32"
        },
        {
          "indexed": true,
          "internalType": "address",
          "name": "account",
          "type": "address"
        },
        {
          "indexed": true,
          "internalType": "address",
          "name": "sender",
          "type": "address"
        }
      ],
      "name": "RoleRevoked",
      "type": "event"
    },
    {
      "inputs": [],
      "name": "DEFAULT_ADMIN_ROLE",
      "outputs": [
        {
          "internalType": "bytes32",
          "name": "",
          "type": "bytes32"
        }
      ],
      "stateMutability": "view",
      "type": "function"
    },
    {
      "inputs": [],
      "name": "MARGIN_ACCOUNT_SUPPLIER",
      "outputs": [
        {
          "internalType": "bytes32",
          "name": "",
          "type": "bytes32"
        }
      ],
      "stateMutability": "view",
      "type": "function"
    },
    {
      "inputs": [],
      "name": "MARGIN_ENGINE_AUTHORITY",
      "outputs": [
        {
          "internalType": "bytes32",
          "name": "",
          "type": "bytes32"
        }
      ],
      "stateMutability": "view",
      "type": "function"
    },
    {
      "inputs": [
        {
          "internalType": "int256",
          "name": "_count",
          "type": "int256"
        }
      ],
      "name": "deployMarginAccounts",
      "outputs": [],
      "stateMutability": "nonpayable",
      "type": "function"
    },
    {
      "inputs": [
        {
          "internalType": "bytes32",
          "name": "role",
          "type": "bytes32"
        }
      ],
      "name": "getRoleAdmin",
      "outputs": [
        {
          "internalType": "bytes32",
          "name": "",
          "type": "bytes32"
        }
      ],
      "stateMutability": "view",
      "type": "function"
    },
    {
      "inputs": [
        {
          "internalType": "bytes32",
          "name": "role",
          "type": "bytes32"
        },
        {
          "internalType": "address",
          "name": "account",
          "type": "address"
        }
      ],
      "name": "grantRole",
      "outputs": [],
      "stateMutability": "nonpayable",
      "type": "function"
    },
    {
      "inputs": [
        {
          "internalType": "bytes32",
          "name": "_role",
          "type": "bytes32"
        },
        {
          "internalType": "address",
          "name": "_account",
          "type": "address"
        }
      ],
      "name": "hasRole",
      "outputs": [
        {
          "internalType": "bool",
          "name": "",
          "type": "bool"
        }
      ],
      "stateMutability": "view",
      "type": "function"
    },
    {
      "inputs": [],
      "name": "marginAccountImplementation",
      "outputs": [
        {
          "internalType": "address",
          "name": "impl_",
          "type": "address"
        }
      ],
      "stateMutability": "view",
      "type": "function"
    },
    {
      "inputs": [],
      "name": "nextMarginAccountAddress",
      "outputs": [
        {
          "internalType": "address",
          "name": "",
          "type": "address"
        }
      ],
      "stateMutability": "view",
      "type": "function"
    },
    {
      "inputs": [
        {
          "internalType": "address",
          "name": "_for",
          "type": "address"
        },
        {
          "components": [
            {
              "internalType": "address",
              "name": "token",
              "type": "address"
            },
            {
              "internalType": "uint256",
              "name": "amount",
              "type": "uint256"
            }
          ],
          "internalType": "struct Asset[]",
          "name": "_collateral",
          "type": "tuple[]"
        },
        {
          "components": [
            {
              "internalType": "address",
              "name": "token",
              "type": "address"
            },
            {
              "internalType": "uint256",
              "name": "amount",
              "type": "uint256"
            }
          ],
          "internalType": "struct Asset",
          "name": "_leverage",
          "type": "tuple"
        },
        {
          "internalType": "FixedU256x32",
          "name": "_riskFactor",
          "type": "uint256"
        },
        {
          "internalType": "uint256",
          "name": "_signingTimestamp",
          "type": "uint256"
        },
        {
          "internalType": "uint256",
          "name": "_signingNonce",
          "type": "uint256"
        },
        {
          "internalType": "bytes",
          "name": "_signature",
          "type": "bytes"
        }
      ],
      "name": "registerMarginAccount",
      "outputs": [
        {
          "internalType": "contract IMarginAccount",
          "name": "account_",
          "type": "address"
        }
      ],
      "stateMutability": "payable",
      "type": "function"
    },
    {
      "inputs": [
        {
          "internalType": "bytes32",
          "name": "role",
          "type": "bytes32"
        },
        {
          "internalType": "address",
          "name": "account",
          "type": "address"
        }
      ],
      "name": "renounceRole",
      "outputs": [],
      "stateMutability": "nonpayable",
      "type": "function"
    },
    {
      "inputs": [
        {
          "internalType": "bytes32",
          "name": "role",
          "type": "bytes32"
        },
        {
          "internalType": "address",
          "name": "account",
          "type": "address"
        }
      ],
      "name": "revokeRole",
      "outputs": [],
      "stateMutability": "nonpayable",
      "type": "function"
    },
    {
      "inputs": [
        {
          "components": [
            {
              "components": [
                {
                  "components": [
                    {
                      "internalType": "string",
                      "name": "protocol",
                      "type": "string"
                    },
                    {
                      "internalType": "string",
                      "name": "destination",
                      "type": "string"
                    }
                  ],
                  "internalType": "struct Route",
                  "name": "route",
                  "type": "tuple"
                },
                {
                  "components": [
                    {
                      "internalType": "uint256[]",
                      "name": "sequence",
                      "type": "uint256[]"
                    },
                    {
                      "components": [
                        {
                          "internalType": "string",
                          "name": "protocol",
                          "type": "string"
                        },
                        {
                          "components": [
                            {
                              "components": [
                                {
                                  "internalType": "uint256",
                                  "name": "poolId",
                                  "type": "uint256"
                                },
                                {
                                  "internalType": "bytes",
                                  "name": "extraData",
                                  "type": "bytes"
                                }
                              ],
                              "internalType": "struct PositionDescriptor",
                              "name": "descriptor",
                              "type": "tuple"
                            },
                            {
                              "components": [
                                {
                                  "internalType": "address",
                                  "name": "token",
                                  "type": "address"
                                },
                                {
                                  "internalType": "uint256",
                                  "name": "amount",
                                  "type": "uint256"
                                }
                              ],
                              "internalType": "struct Asset[]",
                              "name": "input",
                              "type": "tuple[]"
                            },
                            {
                              "internalType": "uint256",
                              "name": "minLiquidityOut",
                              "type": "uint256"
                            }
                          ],
                          "internalType": "struct IIncreasePositionBuilder.IncreasePositionRequest",
                          "name": "request",
                          "type": "tuple"
                        }
                      ],
                      "internalType": "struct IOrderBuilder.IncreasePositionInstruction[]",
                      "name": "increasePositionInstructions",
                      "type": "tuple[]"
                    },
                    {
                      "components": [
                        {
                          "internalType": "string",
                          "name": "protocol",
                          "type": "string"
                        },
                        {
                          "components": [
                            {
                              "components": [
                                {
                                  "internalType": "uint256",
                                  "name": "poolId",
                                  "type": "uint256"
                                },
                                {
                                  "internalType": "bytes",
                                  "name": "extraData",
                                  "type": "bytes"
                                }
                              ],
                              "internalType": "struct PositionDescriptor",
                              "name": "descriptor",
                              "type": "tuple"
                            },
                            {
                              "internalType": "uint256",
                              "name": "liquidity",
                              "type": "uint256"
                            },
                            {
                              "components": [
                                {
                                  "internalType": "address",
                                  "name": "token",
                                  "type": "address"
                                },
                                {
                                  "internalType": "uint256",
                                  "name": "amount",
                                  "type": "uint256"
                                }
                              ],
                              "internalType": "struct Asset[]",
                              "name": "minOutput",
                              "type": "tuple[]"
                            }
                          ],
                          "internalType": "struct IDecreasePositionBuilder.DecreasePositionRequest",
                          "name": "request",
                          "type": "tuple"
                        }
                      ],
                      "internalType": "struct IOrderBuilder.DecreasePositionInstruction[]",
                      "name": "decreasePositionInstructions",
                      "type": "tuple[]"
                    },
                    {
                      "components": [
                        {
                          "internalType": "string",
                          "name": "protocol",
                          "type": "string"
                        },
                        {
                          "components": [
                            {
                              "internalType": "bytes",
                              "name": "path",
                              "type": "bytes"
                            },
                            {
                              "internalType": "uint256",
                              "name": "amountIn",
                              "type": "uint256"
                            },
                            {
                              "internalType": "uint256",
                              "name": "minAmountOut",
                              "type": "uint256"
                            },
                            {
                              "internalType": "address",
                              "name": "recipient",
                              "type": "address"
                            }
                          ],
                          "internalType": "struct IExchangeBuilder.ExchangeRequest",
                          "name": "request",
                          "type": "tuple"
                        }
                      ],
                      "internalType": "struct IOrderBuilder.ExchangeInstruction[]",
                      "name": "exchangeInstructions",
                      "type": "tuple[]"
                    },
                    {
                      "components": [
                        {
                          "internalType": "string",
                          "name": "protocol",
                          "type": "string"
                        },
                        {
                          "components": [
                            {
                              "internalType": "bytes",
                              "name": "path",
                              "type": "bytes"
                            },
                            {
                              "internalType": "uint256",
                              "name": "amountIn",
                              "type": "uint256"
                            },
                            {
                              "internalType": "uint256",
                              "name": "minAmountOut",
                              "type": "uint256"
                            },
                            {
                              "internalType": "address",
                              "name": "recipient",
                              "type": "address"
                            }
                          ],
                          "internalType": "struct IExchangeBuilder.ExchangeRequest",
                          "name": "request",
                          "type": "tuple"
                        }
                      ],
                      "internalType": "struct IOrderBuilder.ExchangeAllInstruction[]",
                      "name": "exchangeAllInstructions",
                      "type": "tuple[]"
                    }
                  ],
                  "internalType": "struct Script[]",
                  "name": "content",
                  "type": "tuple[]"
                }
              ],
              "internalType": "struct Envelope",
              "name": "action",
              "type": "tuple"
            },
            {
              "components": [
                {
                  "components": [
                    {
                      "internalType": "string",
                      "name": "protocol",
                      "type": "string"
                    },
                    {
                      "internalType": "string",
                      "name": "destination",
                      "type": "string"
                    }
                  ],
                  "internalType": "struct Route",
                  "name": "route",
                  "type": "tuple"
                },
                {
                  "components": [
                    {
                      "internalType": "uint256[]",
                      "name": "sequence",
                      "type": "uint256[]"
                    },
                    {
                      "components": [
                        {
                          "internalType": "string",
                          "name": "protocol",
                          "type": "string"
                        },
                        {
                          "components": [
                            {
                              "components": [
                                {
                                  "internalType": "uint256",
                                  "name": "poolId",
                                  "type": "uint256"
                                },
                                {
                                  "internalType": "bytes",
                                  "name": "extraData",
                                  "type": "bytes"
                                }
                              ],
                              "internalType": "struct PositionDescriptor",
                              "name": "descriptor",
                              "type": "tuple"
                            },
                            {
                              "components": [
                                {
                                  "internalType": "address",
                                  "name": "token",
                                  "type": "address"
                                },
                                {
                                  "internalType": "uint256",
                                  "name": "amount",
                                  "type": "uint256"
                                }
                              ],
                              "internalType": "struct Asset[]",
                              "name": "input",
                              "type": "tuple[]"
                            },
                            {
                              "internalType": "uint256",
                              "name": "minLiquidityOut",
                              "type": "uint256"
                            }
                          ],
                          "internalType": "struct IIncreasePositionBuilder.IncreasePositionRequest",
                          "name": "request",
                          "type": "tuple"
                        }
                      ],
                      "internalType": "struct IOrderBuilder.IncreasePositionInstruction[]",
                      "name": "increasePositionInstructions",
                      "type": "tuple[]"
                    },
                    {
                      "components": [
                        {
                          "internalType": "string",
                          "name": "protocol",
                          "type": "string"
                        },
                        {
                          "components": [
                            {
                              "components": [
                                {
                                  "internalType": "uint256",
                                  "name": "poolId",
                                  "type": "uint256"
                                },
                                {
                                  "internalType": "bytes",
                                  "name": "extraData",
                                  "type": "bytes"
                                }
                              ],
                              "internalType": "struct PositionDescriptor",
                              "name": "descriptor",
                              "type": "tuple"
                            },
                            {
                              "internalType": "uint256",
                              "name": "liquidity",
                              "type": "uint256"
                            },
                            {
                              "components": [
                                {
                                  "internalType": "address",
                                  "name": "token",
                                  "type": "address"
                                },
                                {
                                  "internalType": "uint256",
                                  "name": "amount",
                                  "type": "uint256"
                                }
                              ],
                              "internalType": "struct Asset[]",
                              "name": "minOutput",
                              "type": "tuple[]"
                            }
                          ],
                          "internalType": "struct IDecreasePositionBuilder.DecreasePositionRequest",
                          "name": "request",
                          "type": "tuple"
                        }
                      ],
                      "internalType": "struct IOrderBuilder.DecreasePositionInstruction[]",
                      "name": "decreasePositionInstructions",
                      "type": "tuple[]"
                    },
                    {
                      "components": [
                        {
                          "internalType": "string",
                          "name": "protocol",
                          "type": "string"
                        },
                        {
                          "components": [
                            {
                              "internalType": "bytes",
                              "name": "path",
                              "type": "bytes"
                            },
                            {
                              "internalType": "uint256",
                              "name": "amountIn",
                              "type": "uint256"
                            },
                            {
                              "internalType": "uint256",
                              "name": "minAmountOut",
                              "type": "uint256"
                            },
                            {
                              "internalType": "address",
                              "name": "recipient",
                              "type": "address"
                            }
                          ],
                          "internalType": "struct IExchangeBuilder.ExchangeRequest",
                          "name": "request",
                          "type": "tuple"
                        }
                      ],
                      "internalType": "struct IOrderBuilder.ExchangeInstruction[]",
                      "name": "exchangeInstructions",
                      "type": "tuple[]"
                    },
                    {
                      "components": [
                        {
                          "internalType": "string",
                          "name": "protocol",
                          "type": "string"
                        },
                        {
                          "components": [
                            {
                              "internalType": "bytes",
                              "name": "path",
                              "type": "bytes"
                            },
                            {
                              "internalType": "uint256",
                              "name": "amountIn",
                              "type": "uint256"
                            },
                            {
                              "internalType": "uint256",
                              "name": "minAmountOut",
                              "type": "uint256"
                            },
                            {
                              "internalType": "address",
                              "name": "recipient",
                              "type": "address"
                            }
                          ],
                          "internalType": "struct IExchangeBuilder.ExchangeRequest",
                          "name": "request",
                          "type": "tuple"
                        }
                      ],
                      "internalType": "struct IOrderBuilder.ExchangeAllInstruction[]",
                      "name": "exchangeAllInstructions",
                      "type": "tuple[]"
                    }
                  ],
                  "internalType": "struct Script[]",
                  "name": "content",
                  "type": "tuple[]"
                }
              ],
              "internalType": "struct Envelope[]",
              "name": "onComplete",
              "type": "tuple[]"
            }
          ],
          "internalType": "struct Package[]",
          "name": "_plan",
          "type": "tuple[]"
        }
      ],
      "name": "submitPlan",
      "outputs": [],
      "stateMutability": "nonpayable",
      "type": "function"
    },
    {
      "inputs": [
        {
          "internalType": "address",
          "name": "_account",
          "type": "address"
        },
        {
          "components": [
            {
              "internalType": "address",
              "name": "token",
              "type": "address"
            },
            {
              "internalType": "uint256",
              "name": "amount",
              "type": "uint256"
            }
          ],
          "internalType": "struct Asset",
          "name": "_partialLeverage",
          "type": "tuple"
        }
      ],
      "name": "supplyMarginAccount",
      "outputs": [],
      "stateMutability": "payable",
      "type": "function"
    },
    {
      "inputs": [
        {
          "internalType": "bytes4",
          "name": "interfaceId",
          "type": "bytes4"
        }
      ],
      "name": "supportsInterface",
      "outputs": [
        {
          "internalType": "bool",
          "name": "",
          "type": "bool"
        }
      ],
      "stateMutability": "view",
      "type": "function"
    },
    {
      "inputs": [
        {
          "internalType": "address",
          "name": "_account",
          "type": "address"
        },
        {
          "components": [
            {
              "components": [
                {
                  "components": [
                    {
                      "internalType": "string",
                      "name": "protocol",
                      "type": "string"
                    },
                    {
                      "internalType": "string",
                      "name": "destination",
                      "type": "string"
                    }
                  ],
                  "internalType": "struct Route",
                  "name": "route",
                  "type": "tuple"
                },
                {
                  "components": [
                    {
                      "internalType": "uint256[]",
                      "name": "sequence",
                      "type": "uint256[]"
                    },
                    {
                      "components": [
                        {
                          "internalType": "string",
                          "name": "protocol",
                          "type": "string"
                        },
                        {
                          "components": [
                            {
                              "components": [
                                {
                                  "internalType": "uint256",
                                  "name": "poolId",
                                  "type": "uint256"
                                },
                                {
                                  "internalType": "bytes",
                                  "name": "extraData",
                                  "type": "bytes"
                                }
                              ],
                              "internalType": "struct PositionDescriptor",
                              "name": "descriptor",
                              "type": "tuple"
                            },
                            {
                              "components": [
                                {
                                  "internalType": "address",
                                  "name": "token",
                                  "type": "address"
                                },
                                {
                                  "internalType": "uint256",
                                  "name": "amount",
                                  "type": "uint256"
                                }
                              ],
                              "internalType": "struct Asset[]",
                              "name": "input",
                              "type": "tuple[]"
                            },
                            {
                              "internalType": "uint256",
                              "name": "minLiquidityOut",
                              "type": "uint256"
                            }
                          ],
                          "internalType": "struct IIncreasePositionBuilder.IncreasePositionRequest",
                          "name": "request",
                          "type": "tuple"
                        }
                      ],
                      "internalType": "struct IOrderBuilder.IncreasePositionInstruction[]",
                      "name": "increasePositionInstructions",
                      "type": "tuple[]"
                    },
                    {
                      "components": [
                        {
                          "internalType": "string",
                          "name": "protocol",
                          "type": "string"
                        },
                        {
                          "components": [
                            {
                              "components": [
                                {
                                  "internalType": "uint256",
                                  "name": "poolId",
                                  "type": "uint256"
                                },
                                {
                                  "internalType": "bytes",
                                  "name": "extraData",
                                  "type": "bytes"
                                }
                              ],
                              "internalType": "struct PositionDescriptor",
                              "name": "descriptor",
                              "type": "tuple"
                            },
                            {
                              "internalType": "uint256",
                              "name": "liquidity",
                              "type": "uint256"
                            },
                            {
                              "components": [
                                {
                                  "internalType": "address",
                                  "name": "token",
                                  "type": "address"
                                },
                                {
                                  "internalType": "uint256",
                                  "name": "amount",
                                  "type": "uint256"
                                }
                              ],
                              "internalType": "struct Asset[]",
                              "name": "minOutput",
                              "type": "tuple[]"
                            }
                          ],
                          "internalType": "struct IDecreasePositionBuilder.DecreasePositionRequest",
                          "name": "request",
                          "type": "tuple"
                        }
                      ],
                      "internalType": "struct IOrderBuilder.DecreasePositionInstruction[]",
                      "name": "decreasePositionInstructions",
                      "type": "tuple[]"
                    },
                    {
                      "components": [
                        {
                          "internalType": "string",
                          "name": "protocol",
                          "type": "string"
                        },
                        {
                          "components": [
                            {
                              "internalType": "bytes",
                              "name": "path",
                              "type": "bytes"
                            },
                            {
                              "internalType": "uint256",
                              "name": "amountIn",
                              "type": "uint256"
                            },
                            {
                              "internalType": "uint256",
                              "name": "minAmountOut",
                              "type": "uint256"
                            },
                            {
                              "internalType": "address",
                              "name": "recipient",
                              "type": "address"
                            }
                          ],
                          "internalType": "struct IExchangeBuilder.ExchangeRequest",
                          "name": "request",
                          "type": "tuple"
                        }
                      ],
                      "internalType": "struct IOrderBuilder.ExchangeInstruction[]",
                      "name": "exchangeInstructions",
                      "type": "tuple[]"
                    },
                    {
                      "components": [
                        {
                          "internalType": "string",
                          "name": "protocol",
                          "type": "string"
                        },
                        {
                          "components": [
                            {
                              "internalType": "bytes",
                              "name": "path",
                              "type": "bytes"
                            },
                            {
                              "internalType": "uint256",
                              "name": "amountIn",
                              "type": "uint256"
                            },
                            {
                              "internalType": "uint256",
                              "name": "minAmountOut",
                              "type": "uint256"
                            },
                            {
                              "internalType": "address",
                              "name": "recipient",
                              "type": "address"
                            }
                          ],
                          "internalType": "struct IExchangeBuilder.ExchangeRequest",
                          "name": "request",
                          "type": "tuple"
                        }
                      ],
                      "internalType": "struct IOrderBuilder.ExchangeAllInstruction[]",
                      "name": "exchangeAllInstructions",
                      "type": "tuple[]"
                    }
                  ],
                  "internalType": "struct Script[]",
                  "name": "content",
                  "type": "tuple[]"
                }
              ],
              "internalType": "struct Envelope",
              "name": "action",
              "type": "tuple"
            },
            {
              "components": [
                {
                  "components": [
                    {
                      "internalType": "string",
                      "name": "protocol",
                      "type": "string"
                    },
                    {
                      "internalType": "string",
                      "name": "destination",
                      "type": "string"
                    }
                  ],
                  "internalType": "struct Route",
                  "name": "route",
                  "type": "tuple"
                },
                {
                  "components": [
                    {
                      "internalType": "uint256[]",
                      "name": "sequence",
                      "type": "uint256[]"
                    },
                    {
                      "components": [
                        {
                          "internalType": "string",
                          "name": "protocol",
                          "type": "string"
                        },
                        {
                          "components": [
                            {
                              "components": [
                                {
                                  "internalType": "uint256",
                                  "name": "poolId",
                                  "type": "uint256"
                                },
                                {
                                  "internalType": "bytes",
                                  "name": "extraData",
                                  "type": "bytes"
                                }
                              ],
                              "internalType": "struct PositionDescriptor",
                              "name": "descriptor",
                              "type": "tuple"
                            },
                            {
                              "components": [
                                {
                                  "internalType": "address",
                                  "name": "token",
                                  "type": "address"
                                },
                                {
                                  "internalType": "uint256",
                                  "name": "amount",
                                  "type": "uint256"
                                }
                              ],
                              "internalType": "struct Asset[]",
                              "name": "input",
                              "type": "tuple[]"
                            },
                            {
                              "internalType": "uint256",
                              "name": "minLiquidityOut",
                              "type": "uint256"
                            }
                          ],
                          "internalType": "struct IIncreasePositionBuilder.IncreasePositionRequest",
                          "name": "request",
                          "type": "tuple"
                        }
                      ],
                      "internalType": "struct IOrderBuilder.IncreasePositionInstruction[]",
                      "name": "increasePositionInstructions",
                      "type": "tuple[]"
                    },
                    {
                      "components": [
                        {
                          "internalType": "string",
                          "name": "protocol",
                          "type": "string"
                        },
                        {
                          "components": [
                            {
                              "components": [
                                {
                                  "internalType": "uint256",
                                  "name": "poolId",
                                  "type": "uint256"
                                },
                                {
                                  "internalType": "bytes",
                                  "name": "extraData",
                                  "type": "bytes"
                                }
                              ],
                              "internalType": "struct PositionDescriptor",
                              "name": "descriptor",
                              "type": "tuple"
                            },
                            {
                              "internalType": "uint256",
                              "name": "liquidity",
                              "type": "uint256"
                            },
                            {
                              "components": [
                                {
                                  "internalType": "address",
                                  "name": "token",
                                  "type": "address"
                                },
                                {
                                  "internalType": "uint256",
                                  "name": "amount",
                                  "type": "uint256"
                                }
                              ],
                              "internalType": "struct Asset[]",
                              "name": "minOutput",
                              "type": "tuple[]"
                            }
                          ],
                          "internalType": "struct IDecreasePositionBuilder.DecreasePositionRequest",
                          "name": "request",
                          "type": "tuple"
                        }
                      ],
                      "internalType": "struct IOrderBuilder.DecreasePositionInstruction[]",
                      "name": "decreasePositionInstructions",
                      "type": "tuple[]"
                    },
                    {
                      "components": [
                        {
                          "internalType": "string",
                          "name": "protocol",
                          "type": "string"
                        },
                        {
                          "components": [
                            {
                              "internalType": "bytes",
                              "name": "path",
                              "type": "bytes"
                            },
                            {
                              "internalType": "uint256",
                              "name": "amountIn",
                              "type": "uint256"
                            },
                            {
                              "internalType": "uint256",
                              "name": "minAmountOut",
                              "type": "uint256"
                            },
                            {
                              "internalType": "address",
                              "name": "recipient",
                              "type": "address"
                            }
                          ],
                          "internalType": "struct IExchangeBuilder.ExchangeRequest",
                          "name": "request",
                          "type": "tuple"
                        }
                      ],
                      "internalType": "struct IOrderBuilder.ExchangeInstruction[]",
                      "name": "exchangeInstructions",
                      "type": "tuple[]"
                    },
                    {
                      "components": [
                        {
                          "internalType": "string",
                          "name": "protocol",
                          "type": "string"
                        },
                        {
                          "components": [
                            {
                              "internalType": "bytes",
                              "name": "path",
                              "type": "bytes"
                            },
                            {
                              "internalType": "uint256",
                              "name": "amountIn",
                              "type": "uint256"
                            },
                            {
                              "internalType": "uint256",
                              "name": "minAmountOut",
                              "type": "uint256"
                            },
                            {
                              "internalType": "address",
                              "name": "recipient",
                              "type": "address"
                            }
                          ],
                          "internalType": "struct IExchangeBuilder.ExchangeRequest",
                          "name": "request",
                          "type": "tuple"
                        }
                      ],
                      "internalType": "struct IOrderBuilder.ExchangeAllInstruction[]",
                      "name": "exchangeAllInstructions",
                      "type": "tuple[]"
                    }
                  ],
                  "internalType": "struct Script[]",
                  "name": "content",
                  "type": "tuple[]"
                }
              ],
              "internalType": "struct Envelope[]",
              "name": "onComplete",
              "type": "tuple[]"
            }
          ],
          "internalType": "struct Package",
          "name": "_liquidationPlan",
          "type": "tuple"
        }
      ],
      "name": "tryCloseMarginAccount",
      "outputs": [
        {
          "internalType": "bool",
          "name": "success_",
          "type": "bool"
        }
      ],
      "stateMutability": "nonpayable",
      "type": "function"
    },
    {
      "inputs": [
        {
          "internalType": "bytes",
          "name": "_creationCode",
          "type": "bytes"
        }
      ],
      "name": "updateMarginAccountImplementation",
      "outputs": [],
      "stateMutability": "nonpayable",
      "type": "function"
    },
    {
      "stateMutability": "payable",
      "type": "receive"
    }
  ],
  "bytecode": "0x610120604052346200015c5762004360803803806200001e8162000177565b9283398101906080818303126200015c576200003a816200019d565b906020916200004b8383016200019d565b916200005a604082016200019d565b606082015190916001600160401b0391908282116200015c570186601f820112156200015c57805191821162000161576200009e601f8301601f1916870162000177565b968288528683830101116200015c57859060005b83811062000147575050600091870101526080524660a05260c05260e05281519101206101009081526040516141ad9182620001b38339608051826107b7015260a051826106ea015260c0518281816101740152613d3c015260e05182818161015301528181610f1a015281816110e6015281816111fa01528181611c5c0152613d1b015251818181610eaa0152611b5c0152f35b818101830151898201840152879201620000b2565b600080fd5b634e487b7160e01b600052604160045260246000fd5b6040519190601f01601f191682016001600160401b038111838210176200016157604052565b51906001600160a01b03821682036200015c5756fe608080604052600436101561001d575b50361561001b57600080fd5b005b600090813560e01c90816301ffc9a714611d5b5750806304b3c39114611ae65780631193392a14611a8d578063221dc7f614611a34578063248a9ca3146119ea5780632f2ff15d1461190357806336568abe1461181e578063437feabf146112b457806351c4b0bd14610e2a57806389145bb814610d5557806391d1485414610d06578063a19feff4146105b4578063a217fddf1461057a578063a6aa1d09146104d8578063c8219c4a1461043e578063d547741f146103e05763f321588e0361000f57346103dd576020807ffffffffffffffffffffffffffffffffffffffffffffffffffffffffffffffffc3601126103d9576004359067ffffffffffffffff82116103d5578061021861013961020c943690600401611e85565b61014494919461264f565b6040518281016101ec826101c07f00000000000000000000000000000000000000000000000000000000000000007f00000000000000000000000000000000000000000000000000000000000000008590602090939293604083019473ffffffffffffffffffffffffffffffffffffffff809216845216910152565b037fffffffffffffffffffffffffffffffffffffffffffffffffffffffffffffffe081018452836122f7565b60405197838994868601998a37840191858301938b855251938491612275565b010380865201846122f7565b82518220916040519260408401526055600b7faef33f48d30d4efd68a4ab549c30d7c4bd36a6c0322b4bfddfb2cb8938fdfc819485858201523081520160ff8153209273ffffffffffffffffffffffffffffffffffffffff917f543a5afad456720a20bb954f3229d0931809b27405d3298f8b5e666962637d849583875416958481168097146103ab573b156102d5575b86547fffffffffffffffffffffffff000000000000000000000000000000000000000016861787558780f35b80511561034e5751906000f516156102f057808080806102a9565b606490604051907f08c379a00000000000000000000000000000000000000000000000000000000082526004820152601960248201527f437265617465323a204661696c6564206f6e206465706c6f79000000000000006044820152fd5b606485604051907f08c379a000000000000000000000000000000000000000000000000000000000825280600483015260248201527f437265617465323a2062797465636f6465206c656e677468206973207a65726f6044820152fd5b60046040517fde5f46d7000000000000000000000000000000000000000000000000000000008152fd5b8280fd5b5080fd5b80fd5b50346103dd5760407ffffffffffffffffffffffffffffffffffffffffffffffffffffffffffffffffc3601126103dd5761043b60043561041e611e41565b908084528360205261043660016040862001546120ca565b61237b565b80f35b50346103dd57807ffffffffffffffffffffffffffffffffffffffffffffffffffffffffffffffffc3601126103dd5760206055600b7f543a5afad456720a20bb954f3229d0931809b27405d3298f8b5e666962637d835461049d613ce1565b84815191012090604051916040830152848201523081520160ff81532073ffffffffffffffffffffffffffffffffffffffff60405191168152f35b50346103dd57807ffffffffffffffffffffffffffffffffffffffffffffffffffffffffffffffffc3601126103dd5773ffffffffffffffffffffffffffffffffffffffff7f543a5afad456720a20bb954f3229d0931809b27405d3298f8b5e666962637d845416801561055057602090604051908152f35b60046040517fbbe70f45000000000000000000000000000000000000000000000000000000008152fd5b50346103dd57807ffffffffffffffffffffffffffffffffffffffffffffffffffffffffffffffffc3601126103dd57602090604051908152f35b5061010090817ffffffffffffffffffffffffffffffffffffffffffffffffffffffffffffffffc3601126103dd576105ea611e19565b9167ffffffffffffffff80602435116103d5573660236024350112156103d5578060243560040135116103d55736602480356004013560061b81350101116103d55760407fffffffffffffffffffffffffffffffffffffffffffffffffffffffffffffffbc3601126103d55760e4359081116103d55761066e903690600401611e85565b61025860a435018060a43511610cd9574211610caf578360808160209361069660c435613de1565b6040805186810190898252610739816106be61012082016024356004013560248035016126ec565b6106c98683016126bf565b6084359c8d8a84015260a43560a084015260c43560c08401523060e08401527f000000000000000000000000000000000000000000000000000000000000000090830152037fffffffffffffffffffffffffffffffffffffffffffffffffffffffffffffffe081018352826122f7565b519020968151978282813784520135821a855260417f7fffffffffffffffffffffffffffffff5d576e7357a4501ddfe92f46681b20a1606051109114165afa5082513d15610ca25773ffffffffffffffffffffffffffffffffffffffff9084606052826040521673ffffffffffffffffffffffffffffffffffffffff7f0000000000000000000000000000000000000000000000000000000000000000168103610c745750506107ea60c435613de1565b60c43582527fc190b0d8173a5770bc3ee6a99e41db693b65a31176e9ab1ce61be7186ef6e6016020526040822060017fffffffffffffffffffffffffffffffffffffffffffffffffffffffffffffff0082541617905561084861274a565b3b15610c4a5760643515610c40576024356004013515610c165760016d04ee2d6d415b85acef8100000000820410610be557507f543a5afad456720a20bb954f3229d0931809b27405d3298f8b5e666962637d85805480610b385750506108ad613b27565b815b6024356004013581106109aa575073ffffffffffffffffffffffffffffffffffffffff1690813b156103dd5773ffffffffffffffffffffffffffffffffffffffff604051937f90631d8e0000000000000000000000000000000000000000000000000000000085521660048401526080602484015280838061093f608482016024356004013560248035016126ec565b61094b604483016126bf565b038183865af192831561099d5760209361098e575b5090807f25e16b23f4151af78a7aa799ac8ab9be8de857409238a98d68cf98a4f19e020d6040519380a28152f35b61099790612298565b38610960565b50604051903d90823e3d90fd5b60448160061b60243501013515610ae15760248160061b8135010173ffffffffffffffffffffffffffffffffffffffff6109e38261276d565b1673eeeeeeeeeeeeeeeeeeeeeeeeeeeeeeeeeeeeeeee8114908115610ad8575b5015610a4f57508280808060448560061b60243501013573ffffffffffffffffffffffffffffffffffffffff87165af115610a42576001905b016108af565b63b12d13eb83526004601cfd5b610a589061276d565b8360208160646040519460448760061b60243501013560605273ffffffffffffffffffffffffffffffffffffffff88166040523360601b602c526f23b872dd000000000000000000000000600c52601c9485915af13d156001875114171615610acc57509060019184606052604052610a3c565b600490637939f4248652fd5b90501538610a03565b610af46024809260061b8135010161276d565b73ffffffffffffffffffffffffffffffffffffffff604051917f3b9b86ec000000000000000000000000000000000000000000000000000000008352166004820152fd5b7fffffffffffffffffffffffffffffffffffffffffffffffffffffffffffffffff8101908111610bb85773ffffffffffffffffffffffffffffffffffffffff610b8082613e4a565b90549060031b1c1691610b9282613e4a565b73ffffffffffffffffffffffffffffffffffffffff82549160031b1b19169055556108ad565b6024837f4e487b710000000000000000000000000000000000000000000000000000000081526011600452fd5b602490604051907f717002650000000000000000000000000000000000000000000000000000000082526004820152fd5b60046040517fe1d362ef000000000000000000000000000000000000000000000000000000008152fd5b6024610af461274a565b60046040517fcbcbbf41000000000000000000000000000000000000000000000000000000008152fd5b602492507fda9670b60000000000000000000000000000000000000000000000000000000082526004820152fd5b638baa579f84526004601cfd5b60046040517f0819bdcd000000000000000000000000000000000000000000000000000000008152fd5b6024857f4e487b710000000000000000000000000000000000000000000000000000000081526011600452fd5b50346103dd5760407ffffffffffffffffffffffffffffffffffffffffffffffffffffffffffffffffc3601126103dd576020610d4b610d43611e41565b6004356125bc565b6040519015158152f35b50346103dd5760207ffffffffffffffffffffffffffffffffffffffffffffffffffffffffffffffffc3601126103dd57610d8d61264f565b6004355b7f80000000000000000000000000000000000000000000000000000000000000008114610dfd577fffffffffffffffffffffffffffffffffffffffffffffffffffffffffffffffff80910190811315610df957610df4610def613b27565b613e9f565b610d91565b5080f35b6024827f4e487b710000000000000000000000000000000000000000000000000000000081526011600452fd5b50346103dd576020807ffffffffffffffffffffffffffffffffffffffffffffffffffffffffffffffffc3601126103d9576004359067ffffffffffffffff908183116112b057366023840112156112b05782600401359182116112b057600560243684831b86018201116112ac57610ea3939193611eb3565b80869501937f0000000000000000000000000000000000000000000000000000000000000000945b838710610ed6578780f35b610ee18785836127c1565b9688610ef688610ef18b8061278e565b61364e565b156111a55750610f06888061278e565b908997610f13818461364e565b1561117b577f000000000000000000000000000000000000000000000000000000000000000096838901948c5b610f4a878761311b565b905081101561106257610f5d878761311b565b8210156110365781891b810135907fffffffffffffffffffffffffffffffffffffffffffffffffffffffffffffff61813603018212156110325701610fa28b826136e9565b15610fb1575b50600101610f40565b9b907f898ea091c8d4125ebe0d8ba7ffd4875c464ccb1a744b298bfdb9009112321cdf8c60018094019e60405161102281610ff6858201948686526040830190612caa565b037fffffffffffffffffffffffffffffffffffffffffffffffffffffffffffffffe081018352826122f7565b519020604051908152a190610fa8565b8f80fd5b898f7f4e487b710000000000000000000000000000000000000000000000000000000081526032600452fd5b509a929450949650979160405161108781610ff68b8201948c86526040830190612f6c565b519020878361114d577f9fb959bf43badf5d9827f799fd02c53ed4ef4af2713c2ffdde975df535ed8eee91604051908152a15b81156110d1575b50506001905b0195929092610ecb565b80876110de92019061311b565b91908a928b917f00000000000000000000000000000000000000000000000000000000000000005b82841061112657505050506001929161111e9161240b565b5090386110c1565b909192946001906111428d8461113d8a89896127c1565b6133c9565b019501929190611106565b7f737a623cb5932ef33d9f3414be05a13f050f21d90647cd579fa562827bc168a691604051908152a16110ba565b60046040517f804da956000000000000000000000000000000000000000000000000000000008152fd5b91976040959395517f4b1cd15e0000000000000000000000000000000000000000000000000000000081528381806111e08560048301613068565b03818373ffffffffffffffffffffffffffffffffffffffff7f0000000000000000000000000000000000000000000000000000000000000000165af19182156112a15761125b7f345e310b409d243c2857a5f51d185b126ce734800bf1b4da57d140ed5266dca0938a93876001989261127e575b505061316f565b60405161126f81610ff68582019485613068565b519020604051908152a16110c7565b61129a92503d8091833e61129281836122f7565b8101906127fc565b388e611254565b6040513d86823e3d90fd5b8580fd5b8380fd5b5060607ffffffffffffffffffffffffffffffffffffffffffffffffffffffffffffffffc3601126103dd576112e7611e19565b60407fffffffffffffffffffffffffffffffffffffffffffffffffffffffffffffffdc3601126103d9577fbd8ac73f269c346bf68f1611e0d9aa37a79f6ef8d0abeb300124c346efb0a2959081835260209183835260408420338552835260ff604085205416156115d6575073ffffffffffffffffffffffffffffffffffffffff80821691604051907f2c86d98e000000000000000000000000000000000000000000000000000000008252604082600481875afa9182156115cb57869261158f575b50602435918383169081841415948561158b578290821603611537575060443593841561150657908792916103d55784938173eeeeeeeeeeeeeeeeeeeeeeeeeeeeeeeeeeeeeeee8993149081156114fd575b501561149c57505081809381925af11561148f578391602484925b60405194859384927f3540302300000000000000000000000000000000000000000000000000000000845260048401525af1801561148457611457578280f35b8161147692903d1061147d575b61146e81836122f7565b810190613b0f565b5038808280f35b503d611464565b6040513d85823e3d90fd5b63b12d13eb84526004601cfd5b8360649294939550601c9160405196886060526040523360601b602c526f23b872dd000000000000000000000000600c525af13d1560018751141716156114f0579160248492869485606052604052611417565b637939f42485526004601cfd5b905015386113fc565b602482604051907f3b9b86ec0000000000000000000000000000000000000000000000000000000082526004820152fd5b6040517fa44789e000000000000000000000000000000000000000000000000000000000815273ffffffffffffffffffffffffffffffffffffffff91821660048201529084166024820152604490fd5b0390fd5b8880fd5b9091506040813d6040116115c3575b816115ab604093836122f7565b810103126112ac576115bc906127db565b90386113aa565b3d915061159e565b6040513d88823e3d90fd5b82846115e133612492565b92604051906115ef826122db565b604282528382019260603685378251156117f157603084538251906001918210156117f15790607860218501536041915b818311611753575050506116f6576116ac936116bb926048926040519687937f416363657373436f6e74726f6c3a206163636f756e742000000000000000000088860152611677815180928a603789019101612275565b8401917f206973206d697373696e6720726f6c6520000000000000000000000000000000603784015251809386840190612275565b010360288101855201836122f7565b6115876040519283927f08c379a000000000000000000000000000000000000000000000000000000000845260048401526024830190612338565b606483604051907f08c379a000000000000000000000000000000000000000000000000000000000825280600483015260248201527f537472696e67733a20686578206c656e67746820696e73756666696369656e746044820152fd5b909192600f811660108110156117c4577f3031323334353637383961626364656600000000000000000000000000000000901a6117908587612481565b5360041c928015610dfd577fffffffffffffffffffffffffffffffffffffffffffffffffffffffffffffffff019190611620565b6024837f4e487b710000000000000000000000000000000000000000000000000000000081526032600452fd5b807f4e487b7100000000000000000000000000000000000000000000000000000000602492526032600452fd5b50346103dd5760407ffffffffffffffffffffffffffffffffffffffffffffffffffffffffffffffffc3601126103dd57611856611e41565b3373ffffffffffffffffffffffffffffffffffffffff82160361187f5761043b9060043561237b565b60846040517f08c379a000000000000000000000000000000000000000000000000000000000815260206004820152602f60248201527f416363657373436f6e74726f6c3a2063616e206f6e6c792072656e6f756e636560448201527f20726f6c657320666f722073656c6600000000000000000000000000000000006064820152fd5b50346103dd5760407ffffffffffffffffffffffffffffffffffffffffffffffffffffffffffffffffc3601126103dd5760043561193e611e41565b8183528260205261195560016040852001546120ca565b61195f81836125bc565b15611968578280f35b8183528260205273ffffffffffffffffffffffffffffffffffffffff604084209116908184526020526040832060017fffffffffffffffffffffffffffffffffffffffffffffffffffffffffffffff0082541617905533917f2f8788117e7eff1d82e926ec794901d17c78024a50270940304540a733656f0d8480a438808280f35b50346103dd5760207ffffffffffffffffffffffffffffffffffffffffffffffffffffffffffffffffc3601126103dd57600160406020926004358152808452200154604051908152f35b50346103dd57807ffffffffffffffffffffffffffffffffffffffffffffffffffffffffffffffffc3601126103dd5760206040517fbd8ac73f269c346bf68f1611e0d9aa37a79f6ef8d0abeb300124c346efb0a2958152f35b50346103dd57807ffffffffffffffffffffffffffffffffffffffffffffffffffffffffffffffffc3601126103dd5760206040517f73dc7116aeb4443506890f87340f6691830bb8eec46a412a34da68a2a28899588152f35b50346103dd577ffffffffffffffffffffffffffffffffffffffffffffffffffffffffffffffffc906040823601126103dd57611b20611e19565b906024359167ffffffffffffffff83116103d9576040836004019484360301126103d957611b4c611eb3565b611b56848061278e565b90611b827f0000000000000000000000000000000000000000000000000000000000000000809361364e565b1561117b5773ffffffffffffffffffffffffffffffffffffffff1690611ba8858061278e565b94611bb86020968781019061311b565b8760409792975180987ff0c4baf1000000000000000000000000000000000000000000000000000000008252836024830184600485015252604482019360448160051b8401019180958b915b838310611d07575050505081929350038188885af1958615611cfc578596611cdd575b5085611c3a575b86866040519015158152f35b83949550602490611c4e611c559495613e9f565b019061311b565b84928392917f0000000000000000000000000000000000000000000000000000000000000000905b808610611cb957505050507f0cee1f1f41fa3fc6701fc5f38cc395dd7e845c67715ad19ccfc346ad39633a049150159280a23880808080611c2e565b90919293600190611cd0858561113d8a878b6127c1565b0195019493929190611c7d565b611cf5919650873d891161147d5761146e81836122f7565b9438611c27565b6040513d87823e3d90fd5b9295611d48857fffffffffffffffffffffffffffffffffffffffffffffffffffffffffffffffbc6001959884959803018752611d438a87612f3a565b612caa565b9701930193018b938d9592969396611c04565b9050346103d95760207ffffffffffffffffffffffffffffffffffffffffffffffffffffffffffffffffc3601126103d9576004357fffffffff0000000000000000000000000000000000000000000000000000000081168091036103d557602092507f7965db0b000000000000000000000000000000000000000000000000000000008114908115611def575b5015158152f35b7f01ffc9a70000000000000000000000000000000000000000000000000000000091501438611de8565b6004359073ffffffffffffffffffffffffffffffffffffffff82168203611e3c57565b600080fd5b6024359073ffffffffffffffffffffffffffffffffffffffff82168203611e3c57565b359073ffffffffffffffffffffffffffffffffffffffff82168203611e3c57565b9181601f84011215611e3c5782359167ffffffffffffffff8311611e3c5760208381860195010111611e3c57565b3360009081527fe7a229809e577947b035e8f3787150c205fd05b25721231cd5eca79ae1082076602090815260408083205490927f73dc7116aeb4443506890f87340f6691830bb8eec46a412a34da68a2a28899589160ff1615611f175750505050565b611f2033612492565b91845190611f2d826122db565b604282528482019260603685378251156117f157603084538251906001918210156117f15790607860218501536041915b81831161205957505050611ffd576048611587938693611fc793611fb898519889937f416363657373436f6e74726f6c3a206163636f756e74200000000000000000008a860152611677815180928c603789019101612275565b010360288101875201856122f7565b519283927f08c379a000000000000000000000000000000000000000000000000000000000845260048401526024830190612338565b6064848651907f08c379a000000000000000000000000000000000000000000000000000000000825280600483015260248201527f537472696e67733a20686578206c656e67746820696e73756666696369656e746044820152fd5b909192600f811660108110156117c4577f3031323334353637383961626364656600000000000000000000000000000000901a6120968587612481565b5360041c928015610dfd577fffffffffffffffffffffffffffffffffffffffffffffffffffffffffffffffff019190611f5e565b6120d433826125bc565b156120dc5750565b6120e533612492565b90604051906120f3826122db565b604282526020918281019160603684378151156122465760308353815160019081101561224657607860218401536041905b80821161217b5750506116f6576116ac936116bb926048926040519687937f416363657373436f6e74726f6c3a206163636f756e742000000000000000000088860152611677815180928a603789019101612275565b9091600f81166010811015612218577f3031323334353637383961626364656600000000000000000000000000000000901a6121b78486612481565b5360041c9180156121ea577fffffffffffffffffffffffffffffffffffffffffffffffffffffffffffffffff0190612125565b602460007f4e487b710000000000000000000000000000000000000000000000000000000081526011600452fd5b602460007f4e487b710000000000000000000000000000000000000000000000000000000081526032600452fd5b7f4e487b7100000000000000000000000000000000000000000000000000000000600052603260045260246000fd5b60005b8381106122885750506000910152565b8181015183820152602001612278565b67ffffffffffffffff81116122ac57604052565b7f4e487b7100000000000000000000000000000000000000000000000000000000600052604160045260246000fd5b6080810190811067ffffffffffffffff8211176122ac57604052565b90601f7fffffffffffffffffffffffffffffffffffffffffffffffffffffffffffffffe0910116810190811067ffffffffffffffff8211176122ac57604052565b907fffffffffffffffffffffffffffffffffffffffffffffffffffffffffffffffe0601f60209361237481518092818752878088019101612275565b0116010190565b9061238681836125bc565b61238e575050565b6000918083528260205273ffffffffffffffffffffffffffffffffffffffff60408420921691828452602052604083207fffffffffffffffffffffffffffffffffffffffffffffffffffffffffffffff0081541690557ff6391f5c32d9c69d2a47ea670b442974b53935d1edc7fd64eb21e047a839171b339380a4565b9190820180921161241857565b7f4e487b7100000000000000000000000000000000000000000000000000000000600052601160045260246000fd5b67ffffffffffffffff81116122ac57601f017fffffffffffffffffffffffffffffffffffffffffffffffffffffffffffffffe01660200190565b908151811015612246570160200190565b604051906060820182811067ffffffffffffffff8211176122ac57604052602a82526020820160403682378251156122465760309053815160019081101561224657607860218401536029905b80821161254d5750506124ef5790565b60646040517f08c379a000000000000000000000000000000000000000000000000000000000815260206004820152602060248201527f537472696e67733a20686578206c656e67746820696e73756666696369656e746044820152fd5b9091600f81166010811015612218577f3031323334353637383961626364656600000000000000000000000000000000901a6125898486612481565b5360041c9180156121ea577fffffffffffffffffffffffffffffffffffffffffffffffffffffffffffffffff01906124df565b908115918261260a575b82156125d157505090565b909150600052600060205273ffffffffffffffffffffffffffffffffffffffff6040600020911660005260205260ff6040600020541690565b91507fc8fcad8db84d3cc18b4c41d551ea0ee66dd599cde068d998e57d5e09332c13205473ffffffffffffffffffffffffffffffffffffffff808316911614916125c6565b73ffffffffffffffffffffffffffffffffffffffff7fc8fcad8db84d3cc18b4c41d551ea0ee66dd599cde068d998e57d5e09332c13205416330361268f57565b60246040517f32b2baa3000000000000000000000000000000000000000000000000000000008152336004820152fd5b60443573ffffffffffffffffffffffffffffffffffffffff8116809103611e3c5781526020606435910152565b9190808252602080920192916000905b82821061270a575050505090565b9091929360019073ffffffffffffffffffffffffffffffffffffffff61272f87611e64565b168152858301358382015260409081019501939201906126fc565b60443573ffffffffffffffffffffffffffffffffffffffff81168103611e3c5790565b3573ffffffffffffffffffffffffffffffffffffffff81168103611e3c5790565b9035907fffffffffffffffffffffffffffffffffffffffffffffffffffffffffffffffc181360301821215611e3c570190565b90821015612246576127d89160051b81019061278e565b90565b519073ffffffffffffffffffffffffffffffffffffffff82168203611e3c57565b906020908183820312611e3c57825167ffffffffffffffff93848211611e3c57019080601f83011215611e3c578151938085116122ac578460051b9060409283519661284a878501896122f7565b8752858088019386010194818611611e3c57868101935b86851061287357505050505050505090565b8451848111611e3c578201606090817fffffffffffffffffffffffffffffffffffffffffffffffffffffffffffffffe08287030112611e3c57875191808301838110888211176129365789526128ca8b83016127db565b8352888201518b84015281015190868211611e3c57019184603f84011215611e3c5789830151916128fa83612447565b6129068a5191826122f7565b838152868a8587010111611e3c576129278c959486958c8785019101612275565b89820152815201940193612861565b602460007f4e487b710000000000000000000000000000000000000000000000000000000081526041600452fd5b90357fffffffffffffffffffffffffffffffffffffffffffffffffffffffffffffffc182360301811215611e3c570190565b90357fffffffffffffffffffffffffffffffffffffffffffffffffffffffffffffffe182360301811215611e3c57016020813591019167ffffffffffffffff8211611e3c578136038313611e3c57565b601f82602094937fffffffffffffffffffffffffffffffffffffffffffffffffffffffffffffffe0938186528686013760008582860101520116010190565b90357fffffffffffffffffffffffffffffffffffffffffffffffffffffffffffffffe182360301811215611e3c57016020813591019167ffffffffffffffff8211611e3c578160051b36038313611e3c57565b90357fffffffffffffffffffffffffffffffffffffffffffffffffffffffffffffffa182360301811215611e3c570190565b906040612ac26127d893803584526020810190612996565b91909281602082015201916129e6565b90357fffffffffffffffffffffffffffffffffffffffffffffffffffffffffffffffe182360301811215611e3c57016020813591019167ffffffffffffffff8211611e3c578160061b36038313611e3c57565b612b4e612b43612b358380612996565b6040865260408601916129e6565b916020810190612a78565b916020818303910152604080612b93612b78612b6a8680612964565b606086526060860190612aaa565b612b856020870187612ad2565b9086830360208801526126ec565b93013591015290565b906127d891612bb1612b43612b358380612996565b916020818303910152612bed612bd8612bca8480612964565b606084526060840190612aaa565b92602081013560208401526040810190612ad2565b9160408185039101526126ec565b612c16612c088280612996565b6040855260408501916129e6565b9060208101357fffffffffffffffffffffffffffffffffffffffffffffffffffffffffffffff8182360301811215611e3c5701916020818303910152606073ffffffffffffffffffffffffffffffffffffffff612ca382612c88612c7a8780612996565b6080885260808801916129e6565b95602081013560208701526040810135604087015201611e64565b1691015290565b612cb48180612a25565b60a084528060a08501527f07ffffffffffffffffffffffffffffffffffffffffffffffffffffffffffffff8111611e3c5760059392931b809160c084013781019160209060c08401612d0883830183612a25565b80919260c087890301868801525260e086019560e08260051b82010196836000925b848410612ee357505050505050612d446040820182612a25565b848603604086015280865283860195848260051b82010196836000925b848410612e8c57505050505050612d7b6060820182612a25565b848603606086015280865283860195848260051b82010196836000925b848410612e3a57505050505050806080612db3920190612a25565b919092608081860391015281845280840193818360051b82010194846000925b858410612de4575050505050505090565b909192939495968580612e29837fffffffffffffffffffffffffffffffffffffffffffffffffffffffffffffffe08660019603018852612e248c88612964565b612bfb565b990194019401929594939190612dd3565b909192939497988780612e7a837fffffffffffffffffffffffffffffffffffffffffffffffffffffffffffffffe08660019603018852612e248d88612964565b9b9a0196959190910193019190612d98565b909192939497988780612ed1837fffffffffffffffffffffffffffffffffffffffffffffffffffffffffffffffe08660019603018852612ecc8d88612964565b612b9c565b9b9a0196959190910193019190612d61565b909192939497988780612f28837fffffffffffffffffffffffffffffffffffffffffffffffffffffffffffffff208660019603018852612f238d88612964565b612b25565b9b9a0196959190910193019190612d2a565b90357fffffffffffffffffffffffffffffffffffffffffffffffffffffffffffffff6182360301811215611e3c570190565b90612f778280612964565b60408252612fe7612fdd612f9e612f8e8480612996565b60408088015260808701916129e6565b612fad60209485810190612996565b907fffffffffffffffffffffffffffffffffffffffffffffffffffffffffffffffc08784030160608801526129e6565b9382810190612a25565b9190928181860391015281845280840193818360051b82010194846000925b858410613017575050505050505090565b909192939495968580613057837fffffffffffffffffffffffffffffffffffffffffffffffffffffffffffffffe08660019603018852611d438c88612f3a565b990194019401929594939190613006565b602080825261308d612fdd61307d8580612964565b6040848601526060850190612f6c565b9190937fffffffffffffffffffffffffffffffffffffffffffffffffffffffffffffffe09360408582840301910152828152818101828460051b8301019580956000935b8685106130e357505050505050505090565b90919293949596978680613109838686600196030189526131048d89612964565b612f6c565b9a0195019501939695949291906130d1565b9035907fffffffffffffffffffffffffffffffffffffffffffffffffffffffffffffffe181360301821215611e3c570180359067ffffffffffffffff8211611e3c57602001918160051b36038313611e3c57565b9060005b82518110156132f8576020808260051b850101519073ffffffffffffffffffffffffffffffffffffffff82511681830151906040809401519380519460609384870187811067ffffffffffffffff8211176122ac578352602987527f416464726573733a206c6f772d6c6576656c2063616c6c20776974682076616c868801527f7565206661696c656400000000000000000000000000000000000000000000008388015280471061327557916000808360019a999795896132659a989651920190865af1923d1561326c57503d61325661324d82612447565b925192836122f7565b8152600081943d92013e6132fd565b5001613173565b93506132fd9050565b6084868451907f08c379a00000000000000000000000000000000000000000000000000000000082526004820152602660248201527f416464726573733a20696e73756666696369656e742062616c616e636520666f60448201527f722063616c6c00000000000000000000000000000000000000000000000000006064820152fd5b509050565b919290156133785750815115613311575090565b3b1561331a5790565b60646040517f08c379a000000000000000000000000000000000000000000000000000000000815260206004820152601d60248201527f416464726573733a2063616c6c20746f206e6f6e2d636f6e74726163740000006044820152fd5b82519091501561338b5750805190602001fd5b611587906040519182917f08c379a0000000000000000000000000000000000000000000000000000000008352602060048401526024830190612338565b9291926000916133db6000958361364e565b1561356457845b60208084016133f1818661311b565b90508310156134de57613404908561311b565b8310156134b1578260051b810135907fffffffffffffffffffffffffffffffffffffffffffffffffffffffffffffff618136030182121561158b57019061344b84836136e9565b1561345b575b50506001016133e2565b7f898ea091c8d4125ebe0d8ba7ffd4875c464ccb1a744b298bfdb9009112321cdf90600180949397019660409081516134a181610ff68682019487865286830190612caa565b5190209051908152a19038613451565b6024887f4e487b710000000000000000000000000000000000000000000000000000000081526032600452fd5b5050505090925060405161350281610ff66020820194602086526040830190612f6c565b519020826135375760207f9fb959bf43badf5d9827f799fd02c53ed4ef4af2713c2ffdde975df535ed8eee91604051908152a1565b60207f737a623cb5932ef33d9f3414be05a13f050f21d90647cd579fa562827bc168a691604051908152a1565b846040959293955180927f75037d5400000000000000000000000000000000000000000000000000000000825260206004830152818373ffffffffffffffffffffffffffffffffffffffff826135bd602482018b612f6c565b0393165af1918215613642576020927f429a7fc07cbc3c818b64ad3c0454965d2a817ed88ea0e6362c22b0bd9d696260949282613600939261362757505061316f565b60405161361b81610ff6858201948686526040830190612f6c565b519020604051908152a1565b61363b92503d8091833e61129281836122f7565b3880611254565b604051903d90823e3d90fd5b613658908061278e565b6020810135907fffffffffffffffffffffffffffffffffffffffffffffffffffffffffffffffe181360301821215611e3c5701803567ffffffffffffffff8111611e3c5760208201908036038213611e3c576136b381612447565b916136c160405193846122f7565b81835260208301936020833692010111611e3c57816000926020928637830101525190201490565b9073__$c19b1403ed80f9899923cec92f3eb3423f$__9060005b61370d848061311b565b90508110156138395761372181838661384f565b833b15611e3c57604090815180927fd670be0c00000000000000000000000000000000000000000000000000000000825260248201602090816004850152845180915260449180838601938360051b87010196019360005b8381106137bb57505050505050806000920381875af490816137ac575b506137a45750505050600090565b600101613703565b6137b590612298565b38613796565b9180613826897fffffffffffffffffffffffffffffffffffffffffffffffffffffffffffffffbc83989a600196989a9c03018a52868b5173ffffffffffffffffffffffffffffffffffffffff8151168352848101518584015201519060609081898201520190612338565b9801960191019187959492939193613779565b50505050600190565b9190820391821161241857565b909173ffffffffffffffffffffffffffffffffffffffff6060931691602081019061387a828261311b565b93905060409586830161388d818561311b565b929050840161389c818661311b565b905060808601916138ad838861311b565b9690506138ba888061311b565b821015612246578160051b013599808b10600014613966575050505050505050926138f6600094936138f061393294879661311b565b906127c1565b85519485809481937f053e0948000000000000000000000000000000000000000000000000000000008352602060048401526024830190612b25565b03925af191821561395c5750600091613949575090565b6127d8913d8091833e61129281836122f7565b513d6000823e3d90fd5b8699509561397b9192939495979a989661240b565b98898810156139f657505050505093613932936139b4600097946139ae6139a66139ba968b9a61311b565b949095613842565b90613842565b916127c1565b85519485809481937f3a755c24000000000000000000000000000000000000000000000000000000008352602060048401526024830190612b9c565b9297509297613a08919550879061240b565b9687861015613a6d5750505093613932936139b4600097946139ae6139a6613a31968b9a61311b565b85519485809481937f4cf88f2a000000000000000000000000000000000000000000000000000000008352602060048401526024830190612bfb565b9350809550613a7c919661240b565b9485841015613adf575093613932936139b4600097946139ae6139a6613aa3968b9a61311b565b85519485809481937fa03554cc000000000000000000000000000000000000000000000000000000008352602060048401526024830190612bfb565b6024908851907f6fc45b4f0000000000000000000000000000000000000000000000000000000082526004820152fd5b90816020910312611e3c57518015158103611e3c5790565b7f543a5afad456720a20bb954f3229d0931809b27405d3298f8b5e666962637d838054907fffffffffffffffffffffffffffffffffffffffffffffffffffffffffffffffff821461241857600182019055613b80613ce1565b90815115613c835773ffffffffffffffffffffffffffffffffffffffff90825160206000940184f516908115613c255760405190827fc696b81c0117824045f3a89b5f4db265a7cfbc16cc9a43222f39d91a1ca197578280a2823b156103dd577f8129fc1c000000000000000000000000000000000000000000000000000000008252808260048183875af19081156136425750613c1c575090565b6127d890612298565b60646040517f08c379a000000000000000000000000000000000000000000000000000000000815260206004820152601960248201527f437265617465323a204661696c6564206f6e206465706c6f79000000000000006044820152fd5b60646040517f08c379a000000000000000000000000000000000000000000000000000000000815260206004820152602060248201527f437265617465323a2062797465636f6465206c656e677468206973207a65726f6044820152fd5b613dc66127d8610269604051602091613cfc838201836122f7565b80825282820190613f0f8239604051613dd584820192613db483613d887f00000000000000000000000000000000000000000000000000000000000000007f00000000000000000000000000000000000000000000000000000000000000008890602090939293604083019473ffffffffffffffffffffffffffffffffffffffff809216845216910152565b037fffffffffffffffffffffffffffffffffffffffffffffffffffffffffffffffe081018552846122f7565b60405197889551809288880190612275565b84019151809386840190612275565b010380845201826122f7565b806000527fc190b0d8173a5770bc3ee6a99e41db693b65a31176e9ab1ce61be7186ef6e60160205260ff60406000205416613e195750565b602490604051907f91cab5040000000000000000000000000000000000000000000000000000000082526004820152fd5b7f543a5afad456720a20bb954f3229d0931809b27405d3298f8b5e666962637d858054821015612246576000527f128df69da45c029c49a90e85c9988a9eb6ba19cbd3aa82ac2e9d644f5d3206ed0190600090565b7f543a5afad456720a20bb954f3229d0931809b27405d3298f8b5e666962637d858054680100000000000000008110156122ac57613ee291600182019055613e4a565b819291549060031b9173ffffffffffffffffffffffffffffffffffffffff809116831b921b191617905556fe60a08060405234610028573360805261023b908161002e82396080518181816074015260e30152f35b600080fdfe60806040526004361015610018575b366100a0576100a0565b6000803560e01c63c45a01551461002f575061000e565b3461009d57807ffffffffffffffffffffffffffffffffffffffffffffffffffffffffffffffffc36011261009d5773ffffffffffffffffffffffffffffffffffffffff7f00000000000000000000000000000000000000000000000000000000000000001660805260206080f35b80fd5b6040517fa6aa1d0900000000000000000000000000000000000000000000000000000000815260208160048173ffffffffffffffffffffffffffffffffffffffff7f0000000000000000000000000000000000000000000000000000000000000000165afa9081156101a95760009161011a575b506101b5565b60203d81116101a2575b7fffffffffffffffffffffffffffffffffffffffffffffffffffffffffffffffe0601f820116820182811067ffffffffffffffff8211176101755761016f93506040528101906101d4565b38610114565b6024847f4e487b710000000000000000000000000000000000000000000000000000000081526041600452fd5b503d610124565b6040513d6000823e3d90fd5b6000808092368280378136915af43d82803e156101d0573d90f35b3d90fd5b90816020910312610200575173ffffffffffffffffffffffffffffffffffffffff811681036102005790565b600080fdfea264697066735822122041f9bb5903f95a42e93323a72436511fefaecc8d7dc13cc5d2022870b6cb597d64736f6c63430008130033a26469706673582212209c8f5ddb34a096488ef66577b2a25afe106332a67b360c3ea8bf63d47eeeed8f64736f6c63430008130033",
  "linkReferences": {
    "contracts/orderAssemblySystem/assemblySandbox/libraries/Script.sol": {
      "CommandExecutor": [
        {
          "length": 20,
          "start": 14495
        }
      ]
    }
  },
  "deployedLinkReferences": {
    "contracts/orderAssemblySystem/assemblySandbox/libraries/Script.sol": {
      "CommandExecutor": [
        {
          "length": 20,
          "start": 14060
        }
      ]
    }
  }
}